{
  "_format": "hh-sol-artifact-1",
  "contractName": "DigiNFT",
  "sourceName": "contracts/DigiNFT.sol",
  "abi": [
    {
      "inputs": [],
      "stateMutability": "nonpayable",
      "type": "constructor"
    },
    {
      "anonymous": false,
      "inputs": [
        {
          "indexed": true,
          "internalType": "address",
          "name": "owner",
          "type": "address"
        },
        {
          "indexed": true,
          "internalType": "address",
          "name": "approved",
          "type": "address"
        },
        {
          "indexed": true,
          "internalType": "uint256",
          "name": "tokenId",
          "type": "uint256"
        }
      ],
      "name": "Approval",
      "type": "event"
    },
    {
      "anonymous": false,
      "inputs": [
        {
          "indexed": true,
          "internalType": "address",
          "name": "owner",
          "type": "address"
        },
        {
          "indexed": true,
          "internalType": "address",
          "name": "operator",
          "type": "address"
        },
        {
          "indexed": false,
          "internalType": "bool",
          "name": "approved",
          "type": "bool"
        }
      ],
      "name": "ApprovalForAll",
      "type": "event"
    },
    {
      "anonymous": false,
      "inputs": [
        {
          "indexed": true,
          "internalType": "uint256",
          "name": "tokenId",
          "type": "uint256"
        }
      ],
      "name": "Burn",
      "type": "event"
    },
    {
      "anonymous": false,
      "inputs": [
        {
          "indexed": true,
          "internalType": "address",
          "name": "from",
          "type": "address"
        },
        {
          "indexed": true,
          "internalType": "address",
          "name": "to",
          "type": "address"
        },
        {
          "indexed": true,
          "internalType": "uint256",
          "name": "tokenId",
          "type": "uint256"
        }
      ],
      "name": "ItemSale",
      "type": "event"
    },
    {
      "anonymous": false,
      "inputs": [
        {
          "indexed": true,
          "internalType": "address",
          "name": "owner",
          "type": "address"
        },
        {
          "indexed": true,
          "internalType": "uint256",
          "name": "tokenId",
          "type": "uint256"
        },
        {
          "indexed": false,
          "internalType": "string",
          "name": "tokenURI",
          "type": "string"
        },
        {
          "indexed": false,
          "internalType": "uint256",
          "name": "price",
          "type": "uint256"
        },
        {
          "indexed": false,
          "internalType": "uint256",
          "name": "royalty",
          "type": "uint256"
        },
        {
          "indexed": false,
          "internalType": "bool",
          "name": "sellable",
          "type": "bool"
        }
      ],
      "name": "MarketItemCreation",
      "type": "event"
    },
    {
      "anonymous": false,
      "inputs": [
        {
          "indexed": true,
          "internalType": "address",
          "name": "from",
          "type": "address"
        },
        {
          "indexed": true,
          "internalType": "address",
          "name": "to",
          "type": "address"
        },
        {
          "indexed": true,
          "internalType": "uint256",
          "name": "tokenId",
          "type": "uint256"
        }
      ],
      "name": "Transfer",
      "type": "event"
    },
    {
      "anonymous": false,
      "inputs": [
        {
          "indexed": true,
          "internalType": "address",
          "name": "from",
          "type": "address"
        },
        {
          "indexed": true,
          "internalType": "address",
          "name": "to",
          "type": "address"
        },
        {
          "indexed": true,
          "internalType": "uint256",
          "name": "tokenId",
          "type": "uint256"
        }
      ],
      "name": "TransferItem",
      "type": "event"
    },
    {
      "anonymous": false,
      "inputs": [
        {
          "indexed": true,
          "internalType": "uint256",
          "name": "tokenId",
          "type": "uint256"
        },
        {
          "indexed": false,
          "internalType": "uint256",
          "name": "price",
          "type": "uint256"
        }
      ],
      "name": "UpdatePrice",
      "type": "event"
    },
    {
      "anonymous": false,
      "inputs": [
        {
          "indexed": true,
          "internalType": "uint256",
          "name": "tokenId",
          "type": "uint256"
        },
        {
          "indexed": false,
          "internalType": "uint256",
          "name": "royalty",
          "type": "uint256"
        }
      ],
      "name": "UpdateRoyalty",
      "type": "event"
    },
    {
      "anonymous": false,
      "inputs": [
        {
          "indexed": true,
          "internalType": "uint256",
          "name": "tokenId",
          "type": "uint256"
        },
        {
          "indexed": false,
          "internalType": "bool",
          "name": "status",
          "type": "bool"
        }
      ],
      "name": "UpdateStatus",
      "type": "event"
    },
    {
      "inputs": [
        {
          "internalType": "address",
          "name": "to",
          "type": "address"
        },
        {
          "internalType": "uint256",
          "name": "tokenId",
          "type": "uint256"
        }
      ],
      "name": "approve",
      "outputs": [],
      "stateMutability": "nonpayable",
      "type": "function"
    },
    {
      "inputs": [
        {
          "internalType": "address",
          "name": "owner",
          "type": "address"
        }
      ],
      "name": "balanceOf",
      "outputs": [
        {
          "internalType": "uint256",
          "name": "",
          "type": "uint256"
        }
      ],
      "stateMutability": "view",
      "type": "function"
    },
    {
      "inputs": [
        {
          "internalType": "uint256",
          "name": "tokenId",
          "type": "uint256"
        }
      ],
      "name": "burn",
      "outputs": [],
      "stateMutability": "nonpayable",
      "type": "function"
    },
    {
      "inputs": [
        {
          "internalType": "uint256",
          "name": "tokenId",
          "type": "uint256"
        },
        {
          "internalType": "bool",
          "name": "sellable",
          "type": "bool"
        }
      ],
      "name": "buyItem",
      "outputs": [],
      "stateMutability": "payable",
      "type": "function"
    },
    {
      "inputs": [
        {
          "internalType": "uint256",
          "name": "price",
          "type": "uint256"
        },
        {
          "internalType": "uint256",
          "name": "royalty",
          "type": "uint256"
        }
      ],
      "name": "calculatePriceWithRoyalty",
      "outputs": [
        {
          "internalType": "uint256",
          "name": "",
          "type": "uint256"
        }
      ],
      "stateMutability": "pure",
      "type": "function"
    },
    {
      "inputs": [
        {
          "internalType": "uint256",
          "name": "price",
          "type": "uint256"
        },
        {
          "internalType": "uint256",
          "name": "royalty",
          "type": "uint256"
        }
      ],
      "name": "calculateRoyalty",
      "outputs": [
        {
          "internalType": "uint256",
          "name": "",
          "type": "uint256"
        }
      ],
      "stateMutability": "pure",
      "type": "function"
    },
    {
      "inputs": [
        {
          "internalType": "string",
          "name": "tokenURI",
          "type": "string"
        },
        {
          "internalType": "uint256",
          "name": "price",
          "type": "uint256"
        },
        {
          "internalType": "uint256",
          "name": "royalty",
          "type": "uint256"
        },
        {
          "internalType": "bool",
          "name": "sellable",
          "type": "bool"
        }
      ],
      "name": "createToken",
      "outputs": [
        {
          "internalType": "uint256",
          "name": "",
          "type": "uint256"
        }
      ],
      "stateMutability": "nonpayable",
      "type": "function"
    },
    {
      "inputs": [
        {
          "internalType": "uint256",
          "name": "tokenId",
          "type": "uint256"
        }
      ],
      "name": "getApproved",
      "outputs": [
        {
          "internalType": "address",
          "name": "",
          "type": "address"
        }
      ],
      "stateMutability": "view",
      "type": "function"
    },
    {
      "inputs": [
        {
          "internalType": "uint256",
          "name": "tokenId",
          "type": "uint256"
        }
      ],
      "name": "getMarketItem",
      "outputs": [
        {
          "components": [
            {
              "internalType": "uint256",
              "name": "tokenId",
              "type": "uint256"
            },
            {
              "internalType": "address payable",
              "name": "seller",
              "type": "address"
            },
            {
              "internalType": "address payable",
              "name": "owner",
              "type": "address"
            },
            {
              "internalType": "uint256",
              "name": "price",
              "type": "uint256"
            },
            {
              "internalType": "uint256",
              "name": "royalty",
              "type": "uint256"
            },
            {
              "internalType": "bool",
              "name": "sellable",
              "type": "bool"
            }
          ],
          "internalType": "struct DigiNFT.MarketItem",
          "name": "",
          "type": "tuple"
        }
      ],
      "stateMutability": "view",
      "type": "function"
    },
    {
      "inputs": [
        {
          "internalType": "address",
          "name": "owner",
          "type": "address"
        },
        {
          "internalType": "address",
          "name": "operator",
          "type": "address"
        }
      ],
      "name": "isApprovedForAll",
      "outputs": [
        {
          "internalType": "bool",
          "name": "",
          "type": "bool"
        }
      ],
      "stateMutability": "view",
      "type": "function"
    },
    {
      "inputs": [],
      "name": "name",
      "outputs": [
        {
          "internalType": "string",
          "name": "",
          "type": "string"
        }
      ],
      "stateMutability": "view",
      "type": "function"
    },
    {
      "inputs": [
        {
          "internalType": "uint256",
          "name": "tokenId",
          "type": "uint256"
        }
      ],
      "name": "ownerOf",
      "outputs": [
        {
          "internalType": "address",
          "name": "",
          "type": "address"
        }
      ],
      "stateMutability": "view",
      "type": "function"
    },
    {
      "inputs": [
        {
          "internalType": "address",
          "name": "from",
          "type": "address"
        },
        {
          "internalType": "address",
          "name": "to",
          "type": "address"
        },
        {
          "internalType": "uint256",
          "name": "tokenId",
          "type": "uint256"
        }
      ],
      "name": "safeTransferFrom",
      "outputs": [],
      "stateMutability": "nonpayable",
      "type": "function"
    },
    {
      "inputs": [
        {
          "internalType": "address",
          "name": "from",
          "type": "address"
        },
        {
          "internalType": "address",
          "name": "to",
          "type": "address"
        },
        {
          "internalType": "uint256",
          "name": "tokenId",
          "type": "uint256"
        },
        {
          "internalType": "bytes",
          "name": "_data",
          "type": "bytes"
        }
      ],
      "name": "safeTransferFrom",
      "outputs": [],
      "stateMutability": "nonpayable",
      "type": "function"
    },
    {
      "inputs": [
        {
          "internalType": "address",
          "name": "operator",
          "type": "address"
        },
        {
          "internalType": "bool",
          "name": "approved",
          "type": "bool"
        }
      ],
      "name": "setApprovalForAll",
      "outputs": [],
      "stateMutability": "nonpayable",
      "type": "function"
    },
    {
      "inputs": [
        {
          "internalType": "bytes4",
          "name": "interfaceId",
          "type": "bytes4"
        }
      ],
      "name": "supportsInterface",
      "outputs": [
        {
          "internalType": "bool",
          "name": "",
          "type": "bool"
        }
      ],
      "stateMutability": "view",
      "type": "function"
    },
    {
      "inputs": [],
      "name": "symbol",
      "outputs": [
        {
          "internalType": "string",
          "name": "",
          "type": "string"
        }
      ],
      "stateMutability": "view",
      "type": "function"
    },
    {
      "inputs": [
        {
          "internalType": "uint256",
          "name": "tokenId",
          "type": "uint256"
        }
      ],
      "name": "tokenURI",
      "outputs": [
        {
          "internalType": "string",
          "name": "",
          "type": "string"
        }
      ],
      "stateMutability": "view",
      "type": "function"
    },
    {
      "inputs": [
        {
          "internalType": "address",
          "name": "from",
          "type": "address"
        },
        {
          "internalType": "address",
          "name": "to",
          "type": "address"
        },
        {
          "internalType": "uint256",
          "name": "tokenId",
          "type": "uint256"
        }
      ],
      "name": "transferFrom",
      "outputs": [],
      "stateMutability": "nonpayable",
      "type": "function"
    },
    {
      "inputs": [
        {
          "internalType": "uint256",
          "name": "tokenId",
          "type": "uint256"
        },
        {
          "internalType": "uint256",
          "name": "price",
          "type": "uint256"
        }
      ],
      "name": "updateItemPrice",
      "outputs": [],
      "stateMutability": "nonpayable",
      "type": "function"
    },
    {
      "inputs": [
        {
          "internalType": "uint256",
          "name": "tokenId",
          "type": "uint256"
        },
        {
          "internalType": "uint256",
          "name": "royalty",
          "type": "uint256"
        }
      ],
      "name": "updateItemRoyalty",
      "outputs": [],
      "stateMutability": "nonpayable",
      "type": "function"
    },
    {
      "inputs": [
        {
          "internalType": "uint256",
          "name": "tokenId",
          "type": "uint256"
        },
        {
          "internalType": "bool",
          "name": "sellable",
          "type": "bool"
        }
      ],
      "name": "updateItemStatus",
      "outputs": [],
      "stateMutability": "nonpayable",
      "type": "function"
    }
  ],
  "bytecode": "0x60806040523480156200001157600080fd5b506040518060400160405280600781526020017f446967694e4654000000000000000000000000000000000000000000000000008152506040518060400160405280600481526020017f4449474900000000000000000000000000000000000000000000000000000000815250816000908051906020019062000096929190620000b8565b508060019080519060200190620000af929190620000b8565b505050620001cd565b828054620000c69062000168565b90600052602060002090601f016020900481019282620000ea576000855562000136565b82601f106200010557805160ff191683800117855562000136565b8280016001018555821562000136579182015b828111156200013557825182559160200191906001019062000118565b5b50905062000145919062000149565b5090565b5b80821115620001645760008160009055506001016200014a565b5090565b600060028204905060018216806200018157607f821691505b602082108114156200019857620001976200019e565b5b50919050565b7f4e487b7100000000000000000000000000000000000000000000000000000000600052602260045260246000fd5b61486780620001dd6000396000f3fe6080604052600436106101355760003560e01c806384ab9b1b116100ab578063b88d4fde1161006f578063b88d4fde14610446578063c7be7a491461046f578063c87b56dd146104ac578063e63f03d4146104e9578063e985e9c514610505578063f3aa0d821461054257610135565b806384ab9b1b1461036357806395d89b411461038c578063a22cb465146103b7578063aa4e3b13146103e0578063b0708a351461040957610135565b806323b872dd116100fd57806323b872dd146102455780632769b96b1461026e57806342842e0e1461029757806342966c68146102c05780636352211e146102e957806370a082311461032657610135565b806301ffc9a71461013a57806306fdde0314610177578063081812fc146101a2578063095ea7b3146101df57806314e6b49114610208575b600080fd5b34801561014657600080fd5b50610161600480360381019061015c91906132cf565b61057f565b60405161016e91906139cd565b60405180910390f35b34801561018357600080fd5b5061018c610661565b60405161019991906139e8565b60405180910390f35b3480156101ae57600080fd5b506101c960048036038101906101c4919061339c565b6106f3565b6040516101d69190613966565b60405180910390f35b3480156101eb57600080fd5b5061020660048036038101906102019190613293565b610778565b005b34801561021457600080fd5b5061022f600480360381019061022a9190613401565b610890565b60405161023c9190613d31565b60405180910390f35b34801561025157600080fd5b5061026c6004803603810190610267919061318d565b6108b6565b005b34801561027a57600080fd5b5061029560048036038101906102909190613401565b610916565b005b3480156102a357600080fd5b506102be60048036038101906102b9919061318d565b610b34565b005b3480156102cc57600080fd5b506102e760048036038101906102e2919061339c565b610b54565b005b3480156102f557600080fd5b50610310600480360381019061030b919061339c565b610d99565b60405161031d9190613966565b60405180910390f35b34801561033257600080fd5b5061034d60048036038101906103489190613128565b610e4b565b60405161035a9190613d31565b60405180910390f35b34801561036f57600080fd5b5061038a60048036038101906103859190613401565b610f03565b005b34801561039857600080fd5b506103a1611166565b6040516103ae91906139e8565b60405180910390f35b3480156103c357600080fd5b506103de60048036038101906103d99190613257565b6111f8565b005b3480156103ec57600080fd5b50610407600480360381019061040291906133c5565b61120e565b005b34801561041557600080fd5b50610430600480360381019061042b9190613401565b61152a565b60405161043d9190613d31565b60405180910390f35b34801561045257600080fd5b5061046d600480360381019061046891906131dc565b611560565b005b34801561047b57600080fd5b506104966004803603810190610491919061339c565b6115c2565b6040516104a39190613d16565b60405180910390f35b3480156104b857600080fd5b506104d360048036038101906104ce919061339c565b6116d4565b6040516104e091906139e8565b60405180910390f35b61050360048036038101906104fe91906133c5565b611826565b005b34801561051157600080fd5b5061052c60048036038101906105279190613151565b611c5b565b60405161053991906139cd565b60405180910390f35b34801561054e57600080fd5b5061056960048036038101906105649190613321565b611cef565b6040516105769190613d31565b60405180910390f35b60007f80ac58cd000000000000000000000000000000000000000000000000000000007bffffffffffffffffffffffffffffffffffffffffffffffffffffffff1916827bffffffffffffffffffffffffffffffffffffffffffffffffffffffff1916148061064a57507f5b5e139f000000000000000000000000000000000000000000000000000000007bffffffffffffffffffffffffffffffffffffffffffffffffffffffff1916827bffffffffffffffffffffffffffffffffffffffffffffffffffffffff1916145b8061065a575061065982611e05565b5b9050919050565b60606000805461067090613ff3565b80601f016020809104026020016040519081016040528092919081815260200182805461069c90613ff3565b80156106e95780601f106106be576101008083540402835291602001916106e9565b820191906000526020600020905b8154815290600101906020018083116106cc57829003601f168201915b5050505050905090565b60006106fe82611e6f565b61073d576040517f08c379a000000000000000000000000000000000000000000000000000000000815260040161073490613c36565b60405180910390fd5b6004600083815260200190815260200160002060009054906101000a900473ffffffffffffffffffffffffffffffffffffffff169050919050565b600061078382610d99565b90508073ffffffffffffffffffffffffffffffffffffffff168373ffffffffffffffffffffffffffffffffffffffff1614156107f4576040517f08c379a00000000000000000000000000000000000000000000000000000000081526004016107eb90613c96565b60405180910390fd5b8073ffffffffffffffffffffffffffffffffffffffff16610813611edb565b73ffffffffffffffffffffffffffffffffffffffff16148061084257506108418161083c611edb565b611c5b565b5b610881576040517f08c379a000000000000000000000000000000000000000000000000000000000815260040161087890613b56565b60405180910390fd5b61088b8383611ee3565b505050565b60006108ae61089f848461152a565b84611f9c90919063ffffffff16565b905092915050565b6108c76108c1611edb565b82611fb2565b610906576040517f08c379a00000000000000000000000000000000000000000000000000000000081526004016108fd90613cb6565b60405180910390fd5b610911838383612090565b505050565b806000811161095a576040517f08c379a000000000000000000000000000000000000000000000000000000000815260040161095190613cf6565b60405180910390fd5b826000600860008381526020019081526020016000206040518060c0016040529081600082015481526020016001820160009054906101000a900473ffffffffffffffffffffffffffffffffffffffff1673ffffffffffffffffffffffffffffffffffffffff1673ffffffffffffffffffffffffffffffffffffffff1681526020016002820160009054906101000a900473ffffffffffffffffffffffffffffffffffffffff1673ffffffffffffffffffffffffffffffffffffffff1673ffffffffffffffffffffffffffffffffffffffff16815260200160038201548152602001600482015481526020016005820160009054906101000a900460ff16151515158152505090503373ffffffffffffffffffffffffffffffffffffffff16816040015173ffffffffffffffffffffffffffffffffffffffff1614610ad4576040517f08c379a0000000000000000000000000000000000000000000000000000000008152600401610acb90613bd6565b60405180910390fd5b6000600860008781526020019081526020016000209050848160030181905550857f8b49109cd5767f43f65aaaae99075135a684e87312ed89a5e0d69e96bed715cb86604051610b249190613d31565b60405180910390a2505050505050565b610b4f83838360405180602001604052806000815250611560565b505050565b806000600860008381526020019081526020016000206040518060c0016040529081600082015481526020016001820160009054906101000a900473ffffffffffffffffffffffffffffffffffffffff1673ffffffffffffffffffffffffffffffffffffffff1673ffffffffffffffffffffffffffffffffffffffff1681526020016002820160009054906101000a900473ffffffffffffffffffffffffffffffffffffffff1673ffffffffffffffffffffffffffffffffffffffff1673ffffffffffffffffffffffffffffffffffffffff16815260200160038201548152602001600482015481526020016005820160009054906101000a900460ff16151515158152505090503373ffffffffffffffffffffffffffffffffffffffff16816040015173ffffffffffffffffffffffffffffffffffffffff1614610cce576040517f08c379a0000000000000000000000000000000000000000000000000000000008152600401610cc590613bd6565b60405180910390fd5b610cd7836122f7565b600860008481526020019081526020016000206000808201600090556001820160006101000a81549073ffffffffffffffffffffffffffffffffffffffff02191690556002820160006101000a81549073ffffffffffffffffffffffffffffffffffffffff0219169055600382016000905560048201600090556005820160006101000a81549060ff02191690555050827fb90306ad06b2a6ff86ddc9327db583062895ef6540e62dc50add009db5b356eb60405160405180910390a2505050565b6000806002600084815260200190815260200160002060009054906101000a900473ffffffffffffffffffffffffffffffffffffffff169050600073ffffffffffffffffffffffffffffffffffffffff168173ffffffffffffffffffffffffffffffffffffffff161415610e42576040517f08c379a0000000000000000000000000000000000000000000000000000000008152600401610e3990613b96565b60405180910390fd5b80915050919050565b60008073ffffffffffffffffffffffffffffffffffffffff168273ffffffffffffffffffffffffffffffffffffffff161415610ebc576040517f08c379a0000000000000000000000000000000000000000000000000000000008152600401610eb390613b76565b60405180910390fd5b600360008373ffffffffffffffffffffffffffffffffffffffff1673ffffffffffffffffffffffffffffffffffffffff168152602001908152602001600020549050919050565b806107d0811115610f49576040517f08c379a0000000000000000000000000000000000000000000000000000000008152600401610f4090613a76565b60405180910390fd5b60008111610f8c576040517f08c379a0000000000000000000000000000000000000000000000000000000008152600401610f8390613c76565b60405180910390fd5b826000600860008381526020019081526020016000206040518060c0016040529081600082015481526020016001820160009054906101000a900473ffffffffffffffffffffffffffffffffffffffff1673ffffffffffffffffffffffffffffffffffffffff1673ffffffffffffffffffffffffffffffffffffffff1681526020016002820160009054906101000a900473ffffffffffffffffffffffffffffffffffffffff1673ffffffffffffffffffffffffffffffffffffffff1673ffffffffffffffffffffffffffffffffffffffff16815260200160038201548152602001600482015481526020016005820160009054906101000a900460ff16151515158152505090503373ffffffffffffffffffffffffffffffffffffffff16816040015173ffffffffffffffffffffffffffffffffffffffff1614611106576040517f08c379a00000000000000000000000000000000000000000000000000000000081526004016110fd90613bd6565b60405180910390fd5b6000600860008781526020019081526020016000209050848160040181905550857f915ddf42cc08ea12c2f8aa4044ebf245db595dbba6114c36344348ed077c1ec5866040516111569190613d31565b60405180910390a2505050505050565b60606001805461117590613ff3565b80601f01602080910402602001604051908101604052809291908181526020018280546111a190613ff3565b80156111ee5780601f106111c3576101008083540402835291602001916111ee565b820191906000526020600020905b8154815290600101906020018083116111d157829003601f168201915b5050505050905090565b61120a611203611edb565b838361234a565b5050565b816000600860008381526020019081526020016000206040518060c0016040529081600082015481526020016001820160009054906101000a900473ffffffffffffffffffffffffffffffffffffffff1673ffffffffffffffffffffffffffffffffffffffff1673ffffffffffffffffffffffffffffffffffffffff1681526020016002820160009054906101000a900473ffffffffffffffffffffffffffffffffffffffff1673ffffffffffffffffffffffffffffffffffffffff1673ffffffffffffffffffffffffffffffffffffffff16815260200160038201548152602001600482015481526020016005820160009054906101000a900460ff16151515158152505090503373ffffffffffffffffffffffffffffffffffffffff16816040015173ffffffffffffffffffffffffffffffffffffffff1614611388576040517f08c379a000000000000000000000000000000000000000000000000000000000815260040161137f90613bd6565b60405180910390fd5b60006008600086815260200190815260200160002090508315158160050160009054906101000a900460ff16151514156113f7576040517f08c379a00000000000000000000000000000000000000000000000000000000081526004016113ee90613b36565b60405180910390fd5b831561146857611408333087612090565b843073ffffffffffffffffffffffffffffffffffffffff163373ffffffffffffffffffffffffffffffffffffffff167fd9833a6b8a219b001f51805a4733ebf47fafa146ef3ce10ede12f261055bb79d60405160405180910390a46114cf565b611473303387612090565b843373ffffffffffffffffffffffffffffffffffffffff163073ffffffffffffffffffffffffffffffffffffffff167fd9833a6b8a219b001f51805a4733ebf47fafa146ef3ce10ede12f261055bb79d60405160405180910390a45b838160050160006101000a81548160ff021916908315150217905550847f2c4c0d52438c3daae1b3827fad788f403bd133a63f12fbae7137751a445f31658560405161151b91906139cd565b60405180910390a25050505050565b60008061271090506115578161154985876124b790919063ffffffff16565b6124cd90919063ffffffff16565b91505092915050565b61157161156b611edb565b83611fb2565b6115b0576040517f08c379a00000000000000000000000000000000000000000000000000000000081526004016115a790613cb6565b60405180910390fd5b6115bc848484846124e3565b50505050565b6115ca612ea8565b600860008381526020019081526020016000206040518060c0016040529081600082015481526020016001820160009054906101000a900473ffffffffffffffffffffffffffffffffffffffff1673ffffffffffffffffffffffffffffffffffffffff1673ffffffffffffffffffffffffffffffffffffffff1681526020016002820160009054906101000a900473ffffffffffffffffffffffffffffffffffffffff1673ffffffffffffffffffffffffffffffffffffffff1673ffffffffffffffffffffffffffffffffffffffff16815260200160038201548152602001600482015481526020016005820160009054906101000a900460ff1615151515815250509050919050565b60606116df82611e6f565b61171e576040517f08c379a000000000000000000000000000000000000000000000000000000000815260040161171590613c16565b60405180910390fd5b600060066000848152602001908152602001600020805461173e90613ff3565b80601f016020809104026020016040519081016040528092919081815260200182805461176a90613ff3565b80156117b75780601f1061178c576101008083540402835291602001916117b7565b820191906000526020600020905b81548152906001019060200180831161179a57829003601f168201915b5050505050905060006117c861253f565b90506000815114156117de578192505050611821565b6000825111156118135780826040516020016117fb9291906138fd565b60405160208183030381529060405292505050611821565b61181c84612556565b925050505b919050565b60006008600084815260200190815260200160002090508060050160009054906101000a900460ff1661188e576040517f08c379a000000000000000000000000000000000000000000000000000000000815260040161188590613cd6565b60405180910390fd5b60008160030154905060006118ab8360030154846004015461152a565b90508260020160009054906101000a900473ffffffffffffffffffffffffffffffffffffffff1673ffffffffffffffffffffffffffffffffffffffff168360010160009054906101000a900473ffffffffffffffffffffffffffffffffffffffff1673ffffffffffffffffffffffffffffffffffffffff161461193d5761193a83600301548460040154610890565b91505b813414611949346125fd565b611952846125fd565b604051602001611963929190613921565b604051602081830303815290604052906119b3576040517f08c379a00000000000000000000000000000000000000000000000000000000081526004016119aa91906139e8565b60405180910390fd5b5083611a20576119c4303387612090565b843373ffffffffffffffffffffffffffffffffffffffff163073ffffffffffffffffffffffffffffffffffffffff167fd9833a6b8a219b001f51805a4733ebf47fafa146ef3ce10ede12f261055bb79d60405160405180910390a45b8260010160009054906101000a900473ffffffffffffffffffffffffffffffffffffffff1673ffffffffffffffffffffffffffffffffffffffff166108fc84600301549081150290604051600060405180830381858888f19350505050158015611a8e573d6000803e3d6000fd5b508260020160009054906101000a900473ffffffffffffffffffffffffffffffffffffffff1673ffffffffffffffffffffffffffffffffffffffff168360010160009054906101000a900473ffffffffffffffffffffffffffffffffffffffff1673ffffffffffffffffffffffffffffffffffffffff1614611b76578260020160009054906101000a900473ffffffffffffffffffffffffffffffffffffffff1673ffffffffffffffffffffffffffffffffffffffff166108fc829081150290604051600060405180830381858888f19350505050158015611b74573d6000803e3d6000fd5b505b843373ffffffffffffffffffffffffffffffffffffffff168460010160009054906101000a900473ffffffffffffffffffffffffffffffffffffffff1673ffffffffffffffffffffffffffffffffffffffff167fa4dafed5a91e4ceb703f96c8515263275bad43a1eeb317a1bda3d0d33a4b72c660405160405180910390a4838360050160006101000a81548160ff021916908315150217905550338360010160006101000a81548173ffffffffffffffffffffffffffffffffffffffff021916908373ffffffffffffffffffffffffffffffffffffffff1602179055505050505050565b6000600560008473ffffffffffffffffffffffffffffffffffffffff1673ffffffffffffffffffffffffffffffffffffffff16815260200190815260200160002060008373ffffffffffffffffffffffffffffffffffffffff1673ffffffffffffffffffffffffffffffffffffffff16815260200190815260200160002060009054906101000a900460ff16905092915050565b60008360008111611d35576040517f08c379a0000000000000000000000000000000000000000000000000000000008152600401611d2c90613cf6565b60405180910390fd5b836107d0811115611d7b576040517f08c379a0000000000000000000000000000000000000000000000000000000008152600401611d7290613a76565b60405180910390fd5b60008111611dbe576040517f08c379a0000000000000000000000000000000000000000000000000000000008152600401611db590613c76565b60405180910390fd5b611dc860076127aa565b6000611dd460076127c0565b9050611de033826127ce565b611dea81896129a8565b611df78188888b89612a1c565b809350505050949350505050565b60007f01ffc9a7000000000000000000000000000000000000000000000000000000007bffffffffffffffffffffffffffffffffffffffffffffffffffffffff1916827bffffffffffffffffffffffffffffffffffffffffffffffffffffffff1916149050919050565b60008073ffffffffffffffffffffffffffffffffffffffff166002600084815260200190815260200160002060009054906101000a900473ffffffffffffffffffffffffffffffffffffffff1673ffffffffffffffffffffffffffffffffffffffff1614159050919050565b600033905090565b816004600083815260200190815260200160002060006101000a81548173ffffffffffffffffffffffffffffffffffffffff021916908373ffffffffffffffffffffffffffffffffffffffff160217905550808273ffffffffffffffffffffffffffffffffffffffff16611f5683610d99565b73ffffffffffffffffffffffffffffffffffffffff167f8c5be1e5ebec7d5bd14f71427d1e84f3dd0314c0f7b2291e5b200ac8c7c3b92560405160405180910390a45050565b60008183611faa9190613e16565b905092915050565b6000611fbd82611e6f565b611ffc576040517f08c379a0000000000000000000000000000000000000000000000000000000008152600401611ff390613b16565b60405180910390fd5b600061200783610d99565b90508073ffffffffffffffffffffffffffffffffffffffff168473ffffffffffffffffffffffffffffffffffffffff16148061207657508373ffffffffffffffffffffffffffffffffffffffff1661205e846106f3565b73ffffffffffffffffffffffffffffffffffffffff16145b8061208757506120868185611c5b565b5b91505092915050565b8273ffffffffffffffffffffffffffffffffffffffff166120b082610d99565b73ffffffffffffffffffffffffffffffffffffffff1614612106576040517f08c379a00000000000000000000000000000000000000000000000000000000081526004016120fd90613a96565b60405180910390fd5b600073ffffffffffffffffffffffffffffffffffffffff168273ffffffffffffffffffffffffffffffffffffffff161415612176576040517f08c379a000000000000000000000000000000000000000000000000000000000815260040161216d90613ad6565b60405180910390fd5b612181838383612bc7565b61218c600082611ee3565b6001600360008573ffffffffffffffffffffffffffffffffffffffff1673ffffffffffffffffffffffffffffffffffffffff16815260200190815260200160002060008282546121dc9190613ef7565b925050819055506001600360008473ffffffffffffffffffffffffffffffffffffffff1673ffffffffffffffffffffffffffffffffffffffff16815260200190815260200160002060008282546122339190613e16565b92505081905550816002600083815260200190815260200160002060006101000a81548173ffffffffffffffffffffffffffffffffffffffff021916908373ffffffffffffffffffffffffffffffffffffffff160217905550808273ffffffffffffffffffffffffffffffffffffffff168473ffffffffffffffffffffffffffffffffffffffff167fddf252ad1be2c89b69c2b068fc378daa952ba7f163c4a11628f55a4df523b3ef60405160405180910390a46122f2838383612bcc565b505050565b61230081612bd1565b600060066000838152602001908152602001600020805461232090613ff3565b905014612347576006600082815260200190815260200160002060006123469190612f0c565b5b50565b8173ffffffffffffffffffffffffffffffffffffffff168373ffffffffffffffffffffffffffffffffffffffff1614156123b9576040517f08c379a00000000000000000000000000000000000000000000000000000000081526004016123b090613af6565b60405180910390fd5b80600560008573ffffffffffffffffffffffffffffffffffffffff1673ffffffffffffffffffffffffffffffffffffffff16815260200190815260200160002060008473ffffffffffffffffffffffffffffffffffffffff1673ffffffffffffffffffffffffffffffffffffffff16815260200190815260200160002060006101000a81548160ff0219169083151502179055508173ffffffffffffffffffffffffffffffffffffffff168373ffffffffffffffffffffffffffffffffffffffff167f17307eab39ab6107e8899845ad3d59bd9653f200f220920489ca2b5937696c31836040516124aa91906139cd565b60405180910390a3505050565b600081836124c59190613e9d565b905092915050565b600081836124db9190613e6c565b905092915050565b6124ee848484612090565b6124fa84848484612cee565b612539576040517f08c379a000000000000000000000000000000000000000000000000000000000815260040161253090613a56565b60405180910390fd5b50505050565b606060405180602001604052806000815250905090565b606061256182611e6f565b6125a0576040517f08c379a000000000000000000000000000000000000000000000000000000000815260040161259790613c56565b60405180910390fd5b60006125aa61253f565b905060008151116125ca57604051806020016040528060008152506125f5565b806125d4846125fd565b6040516020016125e59291906138fd565b6040516020818303038152906040525b915050919050565b60606000821415612645576040518060400160405280600181526020017f300000000000000000000000000000000000000000000000000000000000000081525090506127a5565b600082905060005b6000821461267757808061266090614056565b915050600a826126709190613e6c565b915061264d565b60008167ffffffffffffffff8111156126b9577f4e487b7100000000000000000000000000000000000000000000000000000000600052604160045260246000fd5b6040519080825280601f01601f1916602001820160405280156126eb5781602001600182028036833780820191505090505b5090505b6000851461279e576001826127049190613ef7565b9150600a85612713919061409f565b603061271f9190613e16565b60f81b81838151811061275b577f4e487b7100000000000000000000000000000000000000000000000000000000600052603260045260246000fd5b60200101907effffffffffffffffffffffffffffffffffffffffffffffffffffffffffffff1916908160001a905350600a856127979190613e6c565b94506126ef565b8093505050505b919050565b6001816000016000828254019250508190555050565b600081600001549050919050565b600073ffffffffffffffffffffffffffffffffffffffff168273ffffffffffffffffffffffffffffffffffffffff16141561283e576040517f08c379a000000000000000000000000000000000000000000000000000000000815260040161283590613bf6565b60405180910390fd5b61284781611e6f565b15612887576040517f08c379a000000000000000000000000000000000000000000000000000000000815260040161287e90613ab6565b60405180910390fd5b61289360008383612bc7565b6001600360008473ffffffffffffffffffffffffffffffffffffffff1673ffffffffffffffffffffffffffffffffffffffff16815260200190815260200160002060008282546128e39190613e16565b92505081905550816002600083815260200190815260200160002060006101000a81548173ffffffffffffffffffffffffffffffffffffffff021916908373ffffffffffffffffffffffffffffffffffffffff160217905550808273ffffffffffffffffffffffffffffffffffffffff16600073ffffffffffffffffffffffffffffffffffffffff167fddf252ad1be2c89b69c2b068fc378daa952ba7f163c4a11628f55a4df523b3ef60405160405180910390a46129a460008383612bcc565b5050565b6129b182611e6f565b6129f0576040517f08c379a00000000000000000000000000000000000000000000000000000000081526004016129e790613bb6565b60405180910390fd5b80600660008481526020019081526020016000209080519060200190612a17929190612f4c565b505050565b6040518060c001604052808681526020013373ffffffffffffffffffffffffffffffffffffffff1681526020013373ffffffffffffffffffffffffffffffffffffffff168152602001858152602001848152602001821515815250600860008781526020019081526020016000206000820151816000015560208201518160010160006101000a81548173ffffffffffffffffffffffffffffffffffffffff021916908373ffffffffffffffffffffffffffffffffffffffff16021790555060408201518160020160006101000a81548173ffffffffffffffffffffffffffffffffffffffff021916908373ffffffffffffffffffffffffffffffffffffffff160217905550606082015181600301556080820151816004015560a08201518160050160006101000a81548160ff0219169083151502179055509050508015612b6b57612b6a333087612090565b5b843373ffffffffffffffffffffffffffffffffffffffff167fe1fb72be69a9270881e877fe2a9b4a2277c5a6ff762016a51dce8ad8bed55aa784878786604051612bb89493929190613a0a565b60405180910390a35050505050565b505050565b505050565b6000612bdc82610d99565b9050612bea81600084612bc7565b612bf5600083611ee3565b6001600360008373ffffffffffffffffffffffffffffffffffffffff1673ffffffffffffffffffffffffffffffffffffffff1681526020019081526020016000206000828254612c459190613ef7565b925050819055506002600083815260200190815260200160002060006101000a81549073ffffffffffffffffffffffffffffffffffffffff021916905581600073ffffffffffffffffffffffffffffffffffffffff168273ffffffffffffffffffffffffffffffffffffffff167fddf252ad1be2c89b69c2b068fc378daa952ba7f163c4a11628f55a4df523b3ef60405160405180910390a4612cea81600084612bcc565b5050565b6000612d0f8473ffffffffffffffffffffffffffffffffffffffff16612e85565b15612e78578373ffffffffffffffffffffffffffffffffffffffff1663150b7a02612d38611edb565b8786866040518563ffffffff1660e01b8152600401612d5a9493929190613981565b602060405180830381600087803b158015612d7457600080fd5b505af1925050508015612da557506040513d601f19601f82011682018060405250810190612da291906132f8565b60015b612e28573d8060008114612dd5576040519150601f19603f3d011682016040523d82523d6000602084013e612dda565b606091505b50600081511415612e20576040517f08c379a0000000000000000000000000000000000000000000000000000000008152600401612e1790613a56565b60405180910390fd5b805181602001fd5b63150b7a0260e01b7bffffffffffffffffffffffffffffffffffffffffffffffffffffffff1916817bffffffffffffffffffffffffffffffffffffffffffffffffffffffff191614915050612e7d565b600190505b949350505050565b6000808273ffffffffffffffffffffffffffffffffffffffff163b119050919050565b6040518060c0016040528060008152602001600073ffffffffffffffffffffffffffffffffffffffff168152602001600073ffffffffffffffffffffffffffffffffffffffff16815260200160008152602001600081526020016000151581525090565b508054612f1890613ff3565b6000825580601f10612f2a5750612f49565b601f016020900490600052602060002090810190612f489190612fd2565b5b50565b828054612f5890613ff3565b90600052602060002090601f016020900481019282612f7a5760008555612fc1565b82601f10612f9357805160ff1916838001178555612fc1565b82800160010185558215612fc1579182015b82811115612fc0578251825591602001919060010190612fa5565b5b509050612fce9190612fd2565b5090565b5b80821115612feb576000816000905550600101612fd3565b5090565b6000613002612ffd84613d71565b613d4c565b90508281526020810184848401111561301a57600080fd5b613025848285613fb1565b509392505050565b600061304061303b84613da2565b613d4c565b90508281526020810184848401111561305857600080fd5b613063848285613fb1565b509392505050565b60008135905061307a816147d5565b92915050565b60008135905061308f816147ec565b92915050565b6000813590506130a481614803565b92915050565b6000815190506130b981614803565b92915050565b600082601f8301126130d057600080fd5b81356130e0848260208601612fef565b91505092915050565b600082601f8301126130fa57600080fd5b813561310a84826020860161302d565b91505092915050565b6000813590506131228161481a565b92915050565b60006020828403121561313a57600080fd5b60006131488482850161306b565b91505092915050565b6000806040838503121561316457600080fd5b60006131728582860161306b565b92505060206131838582860161306b565b9150509250929050565b6000806000606084860312156131a257600080fd5b60006131b08682870161306b565b93505060206131c18682870161306b565b92505060406131d286828701613113565b9150509250925092565b600080600080608085870312156131f257600080fd5b60006132008782880161306b565b94505060206132118782880161306b565b935050604061322287828801613113565b925050606085013567ffffffffffffffff81111561323f57600080fd5b61324b878288016130bf565b91505092959194509250565b6000806040838503121561326a57600080fd5b60006132788582860161306b565b925050602061328985828601613080565b9150509250929050565b600080604083850312156132a657600080fd5b60006132b48582860161306b565b92505060206132c585828601613113565b9150509250929050565b6000602082840312156132e157600080fd5b60006132ef84828501613095565b91505092915050565b60006020828403121561330a57600080fd5b6000613318848285016130aa565b91505092915050565b6000806000806080858703121561333757600080fd5b600085013567ffffffffffffffff81111561335157600080fd5b61335d878288016130e9565b945050602061336e87828801613113565b935050604061337f87828801613113565b925050606061339087828801613080565b91505092959194509250565b6000602082840312156133ae57600080fd5b60006133bc84828501613113565b91505092915050565b600080604083850312156133d857600080fd5b60006133e685828601613113565b92505060206133f785828601613080565b9150509250929050565b6000806040838503121561341457600080fd5b600061342285828601613113565b925050602061343385828601613113565b9150509250929050565b61344681613f3d565b82525050565b61345581613f2b565b82525050565b61346481613f4f565b82525050565b61347381613f4f565b82525050565b600061348482613dd3565b61348e8185613de9565b935061349e818560208601613fc0565b6134a78161418c565b840191505092915050565b60006134bd82613dde565b6134c78185613dfa565b93506134d7818560208601613fc0565b6134e08161418c565b840191505092915050565b60006134f682613dde565b6135008185613e0b565b9350613510818560208601613fc0565b80840191505092915050565b6000613529603283613dfa565b91506135348261419d565b604082019050919050565b600061354c601e83613dfa565b9150613557826141ec565b602082019050919050565b600061356f602583613dfa565b915061357a82614215565b604082019050919050565b6000613592601c83613dfa565b915061359d82614264565b602082019050919050565b60006135b5602483613dfa565b91506135c08261428d565b604082019050919050565b60006135d8601983613dfa565b91506135e3826142dc565b602082019050919050565b60006135fb602c83613dfa565b915061360682614305565b604082019050919050565b600061361e601f83613dfa565b915061362982614354565b602082019050919050565b6000613641600183613e0b565b915061364c8261437d565b600182019050919050565b6000613664603883613dfa565b915061366f826143a6565b604082019050919050565b6000613687602a83613dfa565b9150613692826143f5565b604082019050919050565b60006136aa602983613dfa565b91506136b582614444565b604082019050919050565b60006136cd602e83613dfa565b91506136d882614493565b604082019050919050565b60006136f0603283613dfa565b91506136fb826144e2565b604082019050919050565b6000613713602083613dfa565b915061371e82614531565b602082019050919050565b6000613736603183613dfa565b91506137418261455a565b604082019050919050565b6000613759602c83613dfa565b9150613764826145a9565b604082019050919050565b600061377c602f83613dfa565b9150613787826145f8565b604082019050919050565b600061379f601883613dfa565b91506137aa82614647565b602082019050919050565b60006137c2602183613dfa565b91506137cd82614670565b604082019050919050565b60006137e5603283613e0b565b91506137f0826146bf565b603282019050919050565b6000613808603183613dfa565b91506138138261470e565b604082019050919050565b600061382b603183613dfa565b91506138368261475d565b604082019050919050565b600061384e601c83613dfa565b9150613859826147ac565b602082019050919050565b60c08201600082015161387a60008501826138df565b50602082015161388d602085018261343d565b5060408201516138a0604085018261343d565b5060608201516138b360608501826138df565b5060808201516138c660808501826138df565b5060a08201516138d960a085018261345b565b50505050565b6138e881613fa7565b82525050565b6138f781613fa7565b82525050565b600061390982856134eb565b915061391582846134eb565b91508190509392505050565b600061392d82856134eb565b915061393882613634565b9150613943826137d8565b915061394e82613634565b915061395a82846134eb565b91508190509392505050565b600060208201905061397b600083018461344c565b92915050565b6000608082019050613996600083018761344c565b6139a3602083018661344c565b6139b060408301856138ee565b81810360608301526139c28184613479565b905095945050505050565b60006020820190506139e2600083018461346a565b92915050565b60006020820190508181036000830152613a0281846134b2565b905092915050565b60006080820190508181036000830152613a2481876134b2565b9050613a3360208301866138ee565b613a4060408301856138ee565b613a4d606083018461346a565b95945050505050565b60006020820190508181036000830152613a6f8161351c565b9050919050565b60006020820190508181036000830152613a8f8161353f565b9050919050565b60006020820190508181036000830152613aaf81613562565b9050919050565b60006020820190508181036000830152613acf81613585565b9050919050565b60006020820190508181036000830152613aef816135a8565b9050919050565b60006020820190508181036000830152613b0f816135cb565b9050919050565b60006020820190508181036000830152613b2f816135ee565b9050919050565b60006020820190508181036000830152613b4f81613611565b9050919050565b60006020820190508181036000830152613b6f81613657565b9050919050565b60006020820190508181036000830152613b8f8161367a565b9050919050565b60006020820190508181036000830152613baf8161369d565b9050919050565b60006020820190508181036000830152613bcf816136c0565b9050919050565b60006020820190508181036000830152613bef816136e3565b9050919050565b60006020820190508181036000830152613c0f81613706565b9050919050565b60006020820190508181036000830152613c2f81613729565b9050919050565b60006020820190508181036000830152613c4f8161374c565b9050919050565b60006020820190508181036000830152613c6f8161376f565b9050919050565b60006020820190508181036000830152613c8f81613792565b9050919050565b60006020820190508181036000830152613caf816137b5565b9050919050565b60006020820190508181036000830152613ccf816137fb565b9050919050565b60006020820190508181036000830152613cef8161381e565b9050919050565b60006020820190508181036000830152613d0f81613841565b9050919050565b600060c082019050613d2b6000830184613864565b92915050565b6000602082019050613d4660008301846138ee565b92915050565b6000613d56613d67565b9050613d628282614025565b919050565b6000604051905090565b600067ffffffffffffffff821115613d8c57613d8b61415d565b5b613d958261418c565b9050602081019050919050565b600067ffffffffffffffff821115613dbd57613dbc61415d565b5b613dc68261418c565b9050602081019050919050565b600081519050919050565b600081519050919050565b600082825260208201905092915050565b600082825260208201905092915050565b600081905092915050565b6000613e2182613fa7565b9150613e2c83613fa7565b9250827fffffffffffffffffffffffffffffffffffffffffffffffffffffffffffffffff03821115613e6157613e606140d0565b5b828201905092915050565b6000613e7782613fa7565b9150613e8283613fa7565b925082613e9257613e916140ff565b5b828204905092915050565b6000613ea882613fa7565b9150613eb383613fa7565b9250817fffffffffffffffffffffffffffffffffffffffffffffffffffffffffffffffff0483118215151615613eec57613eeb6140d0565b5b828202905092915050565b6000613f0282613fa7565b9150613f0d83613fa7565b925082821015613f2057613f1f6140d0565b5b828203905092915050565b6000613f3682613f87565b9050919050565b6000613f4882613f87565b9050919050565b60008115159050919050565b60007fffffffff0000000000000000000000000000000000000000000000000000000082169050919050565b600073ffffffffffffffffffffffffffffffffffffffff82169050919050565b6000819050919050565b82818337600083830152505050565b60005b83811015613fde578082015181840152602081019050613fc3565b83811115613fed576000848401525b50505050565b6000600282049050600182168061400b57607f821691505b6020821081141561401f5761401e61412e565b5b50919050565b61402e8261418c565b810181811067ffffffffffffffff8211171561404d5761404c61415d565b5b80604052505050565b600061406182613fa7565b91507fffffffffffffffffffffffffffffffffffffffffffffffffffffffffffffffff821415614094576140936140d0565b5b600182019050919050565b60006140aa82613fa7565b91506140b583613fa7565b9250826140c5576140c46140ff565b5b828206905092915050565b7f4e487b7100000000000000000000000000000000000000000000000000000000600052601160045260246000fd5b7f4e487b7100000000000000000000000000000000000000000000000000000000600052601260045260246000fd5b7f4e487b7100000000000000000000000000000000000000000000000000000000600052602260045260246000fd5b7f4e487b7100000000000000000000000000000000000000000000000000000000600052604160045260246000fd5b6000601f19601f8301169050919050565b7f4552433732313a207472616e7366657220746f206e6f6e20455243373231526560008201527f63656976657220696d706c656d656e7465720000000000000000000000000000602082015250565b7f526f79616c7479206d757374206e6f74206d6f7265207468616e203230250000600082015250565b7f4552433732313a207472616e736665722066726f6d20696e636f72726563742060008201527f6f776e6572000000000000000000000000000000000000000000000000000000602082015250565b7f4552433732313a20746f6b656e20616c7265616479206d696e74656400000000600082015250565b7f4552433732313a207472616e7366657220746f20746865207a65726f2061646460008201527f7265737300000000000000000000000000000000000000000000000000000000602082015250565b7f4552433732313a20617070726f766520746f2063616c6c657200000000000000600082015250565b7f4552433732313a206f70657261746f7220717565727920666f72206e6f6e657860008201527f697374656e7420746f6b656e0000000000000000000000000000000000000000602082015250565b7f537461747573206368616e6765206d75737420626520646966666572656e7400600082015250565b7f2000000000000000000000000000000000000000000000000000000000000000600082015250565b7f4552433732313a20617070726f76652063616c6c6572206973206e6f74206f7760008201527f6e6572206e6f7220617070726f76656420666f7220616c6c0000000000000000602082015250565b7f4552433732313a2062616c616e636520717565727920666f7220746865207a6560008201527f726f206164647265737300000000000000000000000000000000000000000000602082015250565b7f4552433732313a206f776e657220717565727920666f72206e6f6e657869737460008201527f656e7420746f6b656e0000000000000000000000000000000000000000000000602082015250565b7f45524337323155524953746f726167653a2055524920736574206f66206e6f6e60008201527f6578697374656e7420746f6b656e000000000000000000000000000000000000602082015250565b7f596f752063616e206f6e6c7920706572666f726d207468697320616374696f6e60008201527f206f6e20796f7572206f776e20746f6b656e0000000000000000000000000000602082015250565b7f4552433732313a206d696e7420746f20746865207a65726f2061646472657373600082015250565b7f45524337323155524953746f726167653a2055524920717565727920666f722060008201527f6e6f6e6578697374656e7420746f6b656e000000000000000000000000000000602082015250565b7f4552433732313a20617070726f76656420717565727920666f72206e6f6e657860008201527f697374656e7420746f6b656e0000000000000000000000000000000000000000602082015250565b7f4552433732314d657461646174613a2055524920717565727920666f72206e6f60008201527f6e6578697374656e7420746f6b656e0000000000000000000000000000000000602082015250565b7f526f79616c7479206d757374206174206c656173742031250000000000000000600082015250565b7f4552433732313a20617070726f76616c20746f2063757272656e74206f776e6560008201527f7200000000000000000000000000000000000000000000000000000000000000602082015250565b7f54686520616d6f756e74206f662065746865727320796f75206d75737420737560008201527f626d69742069736e2774206d6174636865640000000000000000000000000000602082015250565b7f4552433732313a207472616e736665722063616c6c6572206973206e6f74206f60008201527f776e6572206e6f7220617070726f766564000000000000000000000000000000602082015250565b7f596f752063616e2774206275792074686973206974656d20626563617573652060008201527f69742773206e6f742073656c6c61626c65000000000000000000000000000000602082015250565b7f5072696365206d757374206265206174206c6561737420312077656900000000600082015250565b6147de81613f2b565b81146147e957600080fd5b50565b6147f581613f4f565b811461480057600080fd5b50565b61480c81613f5b565b811461481757600080fd5b50565b61482381613fa7565b811461482e57600080fd5b5056fea2646970667358221220608fad3462905531e5eefc28f90f603dc5d3fe534c85674a1750e3438b10cce764736f6c63430008040033",
  "linkReferences": {},
  "deployedLinkReferences": {}
}