{
  "_format": "hh-sol-artifact-1",
  "contractName": "DigiNFT",
  "sourceName": "contracts/DigiNFT.sol",
  "abi": [
    {
      "inputs": [],
      "stateMutability": "nonpayable",
      "type": "constructor"
    },
    {
      "anonymous": false,
      "inputs": [
        {
          "indexed": true,
          "internalType": "address",
          "name": "owner",
          "type": "address"
        },
        {
          "indexed": true,
          "internalType": "address",
          "name": "approved",
          "type": "address"
        },
        {
          "indexed": true,
          "internalType": "uint256",
          "name": "tokenId",
          "type": "uint256"
        }
      ],
      "name": "Approval",
      "type": "event"
    },
    {
      "anonymous": false,
      "inputs": [
        {
          "indexed": true,
          "internalType": "address",
          "name": "owner",
          "type": "address"
        },
        {
          "indexed": true,
          "internalType": "address",
          "name": "operator",
          "type": "address"
        },
        {
          "indexed": false,
          "internalType": "bool",
          "name": "approved",
          "type": "bool"
        }
      ],
      "name": "ApprovalForAll",
      "type": "event"
    },
    {
      "anonymous": false,
      "inputs": [
        {
          "indexed": true,
          "internalType": "uint256",
          "name": "tokenId",
          "type": "uint256"
        }
      ],
      "name": "Burn",
      "type": "event"
    },
    {
      "anonymous": false,
      "inputs": [
        {
          "indexed": true,
          "internalType": "address",
          "name": "from",
          "type": "address"
        },
        {
          "indexed": true,
          "internalType": "address",
          "name": "to",
          "type": "address"
        },
        {
          "indexed": true,
          "internalType": "uint256",
          "name": "tokenId",
          "type": "uint256"
        }
      ],
      "name": "ItemSale",
      "type": "event"
    },
    {
      "anonymous": false,
      "inputs": [
        {
          "indexed": true,
          "internalType": "address",
          "name": "owner",
          "type": "address"
        },
        {
          "indexed": true,
          "internalType": "uint256",
          "name": "tokenId",
          "type": "uint256"
        },
        {
          "indexed": false,
          "internalType": "string",
          "name": "tokenURI",
          "type": "string"
        },
        {
          "indexed": false,
          "internalType": "uint256",
          "name": "price",
          "type": "uint256"
        },
        {
          "indexed": false,
          "internalType": "uint256",
          "name": "royalty",
          "type": "uint256"
        },
        {
          "indexed": false,
          "internalType": "bool",
          "name": "sellable",
          "type": "bool"
        }
      ],
      "name": "MarketItemCreation",
      "type": "event"
    },
    {
      "anonymous": false,
      "inputs": [
        {
          "indexed": true,
          "internalType": "address",
          "name": "from",
          "type": "address"
        },
        {
          "indexed": true,
          "internalType": "address",
          "name": "to",
          "type": "address"
        },
        {
          "indexed": true,
          "internalType": "uint256",
          "name": "tokenId",
          "type": "uint256"
        }
      ],
      "name": "Transfer",
      "type": "event"
    },
    {
      "anonymous": false,
      "inputs": [
        {
          "indexed": true,
          "internalType": "address",
          "name": "from",
          "type": "address"
        },
        {
          "indexed": true,
          "internalType": "address",
          "name": "to",
          "type": "address"
        },
        {
          "indexed": true,
          "internalType": "uint256",
          "name": "tokenId",
          "type": "uint256"
        }
      ],
      "name": "TransferItem",
      "type": "event"
    },
    {
      "anonymous": false,
      "inputs": [
        {
          "indexed": true,
          "internalType": "uint256",
          "name": "tokenId",
          "type": "uint256"
        }
      ],
      "name": "UpdateItem",
      "type": "event"
    },
    {
      "anonymous": false,
      "inputs": [
        {
          "indexed": true,
          "internalType": "uint256",
          "name": "tokenId",
          "type": "uint256"
        },
        {
          "indexed": false,
          "internalType": "uint256",
          "name": "price",
          "type": "uint256"
        }
      ],
      "name": "UpdatePrice",
      "type": "event"
    },
    {
      "anonymous": false,
      "inputs": [
        {
          "indexed": true,
          "internalType": "uint256",
          "name": "tokenId",
          "type": "uint256"
        },
        {
          "indexed": false,
          "internalType": "uint256",
          "name": "royalty",
          "type": "uint256"
        }
      ],
      "name": "UpdateRoyalty",
      "type": "event"
    },
    {
      "anonymous": false,
      "inputs": [
        {
          "indexed": true,
          "internalType": "uint256",
          "name": "tokenId",
          "type": "uint256"
        },
        {
          "indexed": false,
          "internalType": "bool",
          "name": "status",
          "type": "bool"
        }
      ],
      "name": "UpdateStatus",
      "type": "event"
    },
    {
      "inputs": [
        {
          "internalType": "address",
          "name": "to",
          "type": "address"
        },
        {
          "internalType": "uint256",
          "name": "tokenId",
          "type": "uint256"
        }
      ],
      "name": "approve",
      "outputs": [],
      "stateMutability": "nonpayable",
      "type": "function"
    },
    {
      "inputs": [
        {
          "internalType": "address",
          "name": "owner",
          "type": "address"
        }
      ],
      "name": "balanceOf",
      "outputs": [
        {
          "internalType": "uint256",
          "name": "",
          "type": "uint256"
        }
      ],
      "stateMutability": "view",
      "type": "function"
    },
    {
      "inputs": [
        {
          "internalType": "uint256",
          "name": "tokenId",
          "type": "uint256"
        }
      ],
      "name": "burn",
      "outputs": [],
      "stateMutability": "nonpayable",
      "type": "function"
    },
    {
      "inputs": [
        {
          "internalType": "uint256",
          "name": "tokenId",
          "type": "uint256"
        },
        {
          "internalType": "bool",
          "name": "sellable",
          "type": "bool"
        }
      ],
      "name": "buyItem",
      "outputs": [],
      "stateMutability": "payable",
      "type": "function"
    },
    {
      "inputs": [
        {
          "internalType": "uint256",
          "name": "price",
          "type": "uint256"
        },
        {
          "internalType": "uint256",
          "name": "royalty",
          "type": "uint256"
        }
      ],
      "name": "calculatePriceWithRoyalty",
      "outputs": [
        {
          "internalType": "uint256",
          "name": "",
          "type": "uint256"
        }
      ],
      "stateMutability": "pure",
      "type": "function"
    },
    {
      "inputs": [
        {
          "internalType": "uint256",
          "name": "price",
          "type": "uint256"
        },
        {
          "internalType": "uint256",
          "name": "royalty",
          "type": "uint256"
        }
      ],
      "name": "calculateRoyalty",
      "outputs": [
        {
          "internalType": "uint256",
          "name": "",
          "type": "uint256"
        }
      ],
      "stateMutability": "pure",
      "type": "function"
    },
    {
      "inputs": [
        {
          "internalType": "string",
          "name": "tokenURI",
          "type": "string"
        },
        {
          "internalType": "uint256",
          "name": "price",
          "type": "uint256"
        },
        {
          "internalType": "uint256",
          "name": "royalty",
          "type": "uint256"
        },
        {
          "internalType": "bool",
          "name": "sellable",
          "type": "bool"
        }
      ],
      "name": "createToken",
      "outputs": [
        {
          "internalType": "uint256",
          "name": "",
          "type": "uint256"
        }
      ],
      "stateMutability": "nonpayable",
      "type": "function"
    },
    {
      "inputs": [
        {
          "internalType": "uint256",
          "name": "tokenId",
          "type": "uint256"
        }
      ],
      "name": "getApproved",
      "outputs": [
        {
          "internalType": "address",
          "name": "",
          "type": "address"
        }
      ],
      "stateMutability": "view",
      "type": "function"
    },
    {
      "inputs": [
        {
          "internalType": "uint256",
          "name": "tokenId",
          "type": "uint256"
        }
      ],
      "name": "getMarketItem",
      "outputs": [
        {
          "components": [
            {
              "internalType": "uint256",
              "name": "tokenId",
              "type": "uint256"
            },
            {
              "internalType": "address",
              "name": "owner",
              "type": "address"
            },
            {
              "internalType": "address",
              "name": "creator",
              "type": "address"
            },
            {
              "internalType": "uint256",
              "name": "price",
              "type": "uint256"
            },
            {
              "internalType": "uint256",
              "name": "royalty",
              "type": "uint256"
            },
            {
              "internalType": "bool",
              "name": "sellable",
              "type": "bool"
            }
          ],
          "internalType": "struct DigiNFT.MarketItem",
          "name": "",
          "type": "tuple"
        }
      ],
      "stateMutability": "view",
      "type": "function"
    },
    {
      "inputs": [
        {
          "internalType": "address",
          "name": "owner",
          "type": "address"
        },
        {
          "internalType": "address",
          "name": "operator",
          "type": "address"
        }
      ],
      "name": "isApprovedForAll",
      "outputs": [
        {
          "internalType": "bool",
          "name": "",
          "type": "bool"
        }
      ],
      "stateMutability": "view",
      "type": "function"
    },
    {
      "inputs": [],
      "name": "name",
      "outputs": [
        {
          "internalType": "string",
          "name": "",
          "type": "string"
        }
      ],
      "stateMutability": "view",
      "type": "function"
    },
    {
      "inputs": [
        {
          "internalType": "uint256",
          "name": "tokenId",
          "type": "uint256"
        }
      ],
      "name": "ownerOf",
      "outputs": [
        {
          "internalType": "address",
          "name": "",
          "type": "address"
        }
      ],
      "stateMutability": "view",
      "type": "function"
    },
    {
      "inputs": [
        {
          "internalType": "address",
          "name": "from",
          "type": "address"
        },
        {
          "internalType": "address",
          "name": "to",
          "type": "address"
        },
        {
          "internalType": "uint256",
          "name": "tokenId",
          "type": "uint256"
        }
      ],
      "name": "safeTransferFrom",
      "outputs": [],
      "stateMutability": "nonpayable",
      "type": "function"
    },
    {
      "inputs": [
        {
          "internalType": "address",
          "name": "from",
          "type": "address"
        },
        {
          "internalType": "address",
          "name": "to",
          "type": "address"
        },
        {
          "internalType": "uint256",
          "name": "tokenId",
          "type": "uint256"
        },
        {
          "internalType": "bytes",
          "name": "_data",
          "type": "bytes"
        }
      ],
      "name": "safeTransferFrom",
      "outputs": [],
      "stateMutability": "nonpayable",
      "type": "function"
    },
    {
      "inputs": [
        {
          "internalType": "address",
          "name": "operator",
          "type": "address"
        },
        {
          "internalType": "bool",
          "name": "approved",
          "type": "bool"
        }
      ],
      "name": "setApprovalForAll",
      "outputs": [],
      "stateMutability": "nonpayable",
      "type": "function"
    },
    {
      "inputs": [
        {
          "internalType": "bytes4",
          "name": "interfaceId",
          "type": "bytes4"
        }
      ],
      "name": "supportsInterface",
      "outputs": [
        {
          "internalType": "bool",
          "name": "",
          "type": "bool"
        }
      ],
      "stateMutability": "view",
      "type": "function"
    },
    {
      "inputs": [],
      "name": "symbol",
      "outputs": [
        {
          "internalType": "string",
          "name": "",
          "type": "string"
        }
      ],
      "stateMutability": "view",
      "type": "function"
    },
    {
      "inputs": [
        {
          "internalType": "uint256",
          "name": "tokenId",
          "type": "uint256"
        }
      ],
      "name": "tokenURI",
      "outputs": [
        {
          "internalType": "string",
          "name": "",
          "type": "string"
        }
      ],
      "stateMutability": "view",
      "type": "function"
    },
    {
      "inputs": [
        {
          "internalType": "address",
          "name": "from",
          "type": "address"
        },
        {
          "internalType": "address",
          "name": "to",
          "type": "address"
        },
        {
          "internalType": "uint256",
          "name": "tokenId",
          "type": "uint256"
        }
      ],
      "name": "transferFrom",
      "outputs": [],
      "stateMutability": "nonpayable",
      "type": "function"
    },
    {
      "inputs": [
        {
          "internalType": "uint256",
          "name": "tokenId",
          "type": "uint256"
        },
        {
          "internalType": "uint256",
          "name": "price",
          "type": "uint256"
        },
        {
          "internalType": "uint256",
          "name": "royalty",
          "type": "uint256"
        },
        {
          "internalType": "bool",
          "name": "sellable",
          "type": "bool"
        }
      ],
      "name": "updateItem",
      "outputs": [],
      "stateMutability": "nonpayable",
      "type": "function"
    },
    {
      "inputs": [
        {
          "internalType": "uint256",
          "name": "tokenId",
          "type": "uint256"
        },
        {
          "internalType": "uint256",
          "name": "price",
          "type": "uint256"
        }
      ],
      "name": "updateItemPrice",
      "outputs": [],
      "stateMutability": "nonpayable",
      "type": "function"
    },
    {
      "inputs": [
        {
          "internalType": "uint256",
          "name": "tokenId",
          "type": "uint256"
        },
        {
          "internalType": "uint256",
          "name": "royalty",
          "type": "uint256"
        }
      ],
      "name": "updateItemRoyalty",
      "outputs": [],
      "stateMutability": "nonpayable",
      "type": "function"
    },
    {
      "inputs": [
        {
          "internalType": "uint256",
          "name": "tokenId",
          "type": "uint256"
        },
        {
          "internalType": "bool",
          "name": "sellable",
          "type": "bool"
        }
      ],
      "name": "updateItemStatus",
      "outputs": [],
      "stateMutability": "nonpayable",
      "type": "function"
    }
  ],
  "bytecode": "0x60806040523480156200001157600080fd5b506040518060400160405280600781526020017f446967694e4654000000000000000000000000000000000000000000000000008152506040518060400160405280600481526020017f4449474900000000000000000000000000000000000000000000000000000000815250816000908051906020019062000096929190620000b8565b508060019080519060200190620000af929190620000b8565b505050620001cd565b828054620000c69062000168565b90600052602060002090601f016020900481019282620000ea576000855562000136565b82601f106200010557805160ff191683800117855562000136565b8280016001018555821562000136579182015b828111156200013557825182559160200191906001019062000118565b5b50905062000145919062000149565b5090565b5b80821115620001645760008160009055506001016200014a565b5090565b600060028204905060018216806200018157607f821691505b602082108114156200019857620001976200019e565b5b50919050565b7f4e487b7100000000000000000000000000000000000000000000000000000000600052602260045260246000fd5b6148e380620001dd6000396000f3fe6080604052600436106101405760003560e01c806370a08231116100b6578063b88d4fde1161006f578063b88d4fde1461047a578063c7be7a49146104a3578063c87b56dd146104e0578063e63f03d41461051d578063e985e9c514610539578063f3aa0d821461057657610140565b806370a082311461035a57806384ab9b1b1461039757806395d89b41146103c0578063a22cb465146103eb578063aa4e3b1314610414578063b0708a351461043d57610140565b806323b872dd1161010857806323b872dd146102505780632769b96b1461027957806342842e0e146102a257806342966c68146102cb5780635278af55146102f45780636352211e1461031d57610140565b806301ffc9a71461014557806306fdde0314610182578063081812fc146101ad578063095ea7b3146101ea57806314e6b49114610213575b600080fd5b34801561015157600080fd5b5061016c6004803603810190610167919061336b565b6105b3565b6040516101799190613a64565b60405180910390f35b34801561018e57600080fd5b50610197610695565b6040516101a49190613a7f565b60405180910390f35b3480156101b957600080fd5b506101d460048036038101906101cf9190613438565b610727565b6040516101e191906139fd565b60405180910390f35b3480156101f657600080fd5b50610211600480360381019061020c919061332f565b6107ac565b005b34801561021f57600080fd5b5061023a6004803603810190610235919061349d565b6108c4565b6040516102479190613de8565b60405180910390f35b34801561025c57600080fd5b5061027760048036038101906102729190613229565b6108ea565b005b34801561028557600080fd5b506102a0600480360381019061029b919061349d565b61094a565b005b3480156102ae57600080fd5b506102c960048036038101906102c49190613229565b610b68565b005b3480156102d757600080fd5b506102f260048036038101906102ed9190613438565b610b88565b005b34801561030057600080fd5b5061031b600480360381019061031691906134d9565b610dcd565b005b34801561032957600080fd5b50610344600480360381019061033f9190613438565b610e6b565b60405161035191906139fd565b60405180910390f35b34801561036657600080fd5b50610381600480360381019061037c91906131c4565b610f1d565b60405161038e9190613de8565b60405180910390f35b3480156103a357600080fd5b506103be60048036038101906103b9919061349d565b610fd5565b005b3480156103cc57600080fd5b506103d5611238565b6040516103e29190613a7f565b60405180910390f35b3480156103f757600080fd5b50610412600480360381019061040d91906132f3565b6112ca565b005b34801561042057600080fd5b5061043b60048036038101906104369190613461565b6112e0565b005b34801561044957600080fd5b50610464600480360381019061045f919061349d565b6115fc565b6040516104719190613de8565b60405180910390f35b34801561048657600080fd5b506104a1600480360381019061049c9190613278565b611632565b005b3480156104af57600080fd5b506104ca60048036038101906104c59190613438565b611694565b6040516104d79190613dcd565b60405180910390f35b3480156104ec57600080fd5b5061050760048036038101906105029190613438565b6117a6565b6040516105149190613a7f565b60405180910390f35b61053760048036038101906105329190613461565b6118f8565b005b34801561054557600080fd5b50610560600480360381019061055b91906131ed565b611cf7565b60405161056d9190613a64565b60405180910390f35b34801561058257600080fd5b5061059d600480360381019061059891906133bd565b611d8b565b6040516105aa9190613de8565b60405180910390f35b60007f80ac58cd000000000000000000000000000000000000000000000000000000007bffffffffffffffffffffffffffffffffffffffffffffffffffffffff1916827bffffffffffffffffffffffffffffffffffffffffffffffffffffffff1916148061067e57507f5b5e139f000000000000000000000000000000000000000000000000000000007bffffffffffffffffffffffffffffffffffffffffffffffffffffffff1916827bffffffffffffffffffffffffffffffffffffffffffffffffffffffff1916145b8061068e575061068d82611ea1565b5b9050919050565b6060600080546106a490614098565b80601f01602080910402602001604051908101604052809291908181526020018280546106d090614098565b801561071d5780601f106106f25761010080835404028352916020019161071d565b820191906000526020600020905b81548152906001019060200180831161070057829003601f168201915b5050505050905090565b600061073282611f0b565b610771576040517f08c379a000000000000000000000000000000000000000000000000000000000815260040161076890613ccd565b60405180910390fd5b6004600083815260200190815260200160002060009054906101000a900473ffffffffffffffffffffffffffffffffffffffff169050919050565b60006107b782610e6b565b90508073ffffffffffffffffffffffffffffffffffffffff168373ffffffffffffffffffffffffffffffffffffffff161415610828576040517f08c379a000000000000000000000000000000000000000000000000000000000815260040161081f90613d2d565b60405180910390fd5b8073ffffffffffffffffffffffffffffffffffffffff16610847611f77565b73ffffffffffffffffffffffffffffffffffffffff161480610876575061087581610870611f77565b611cf7565b5b6108b5576040517f08c379a00000000000000000000000000000000000000000000000000000000081526004016108ac90613bed565b60405180910390fd5b6108bf8383611f7f565b505050565b60006108e26108d384846115fc565b8461203890919063ffffffff16565b905092915050565b6108fb6108f5611f77565b8261204e565b61093a576040517f08c379a000000000000000000000000000000000000000000000000000000000815260040161093190613d6d565b60405180910390fd5b61094583838361212c565b505050565b806000811161098e576040517f08c379a000000000000000000000000000000000000000000000000000000000815260040161098590613dad565b60405180910390fd5b826000600860008381526020019081526020016000206040518060c0016040529081600082015481526020016001820160009054906101000a900473ffffffffffffffffffffffffffffffffffffffff1673ffffffffffffffffffffffffffffffffffffffff1673ffffffffffffffffffffffffffffffffffffffff1681526020016002820160009054906101000a900473ffffffffffffffffffffffffffffffffffffffff1673ffffffffffffffffffffffffffffffffffffffff1673ffffffffffffffffffffffffffffffffffffffff16815260200160038201548152602001600482015481526020016005820160009054906101000a900460ff16151515158152505090503373ffffffffffffffffffffffffffffffffffffffff16816020015173ffffffffffffffffffffffffffffffffffffffff1614610b08576040517f08c379a0000000000000000000000000000000000000000000000000000000008152600401610aff90613c6d565b60405180910390fd5b6000600860008781526020019081526020016000209050848160030181905550857f8b49109cd5767f43f65aaaae99075135a684e87312ed89a5e0d69e96bed715cb86604051610b589190613de8565b60405180910390a2505050505050565b610b8383838360405180602001604052806000815250611632565b505050565b806000600860008381526020019081526020016000206040518060c0016040529081600082015481526020016001820160009054906101000a900473ffffffffffffffffffffffffffffffffffffffff1673ffffffffffffffffffffffffffffffffffffffff1673ffffffffffffffffffffffffffffffffffffffff1681526020016002820160009054906101000a900473ffffffffffffffffffffffffffffffffffffffff1673ffffffffffffffffffffffffffffffffffffffff1673ffffffffffffffffffffffffffffffffffffffff16815260200160038201548152602001600482015481526020016005820160009054906101000a900460ff16151515158152505090503373ffffffffffffffffffffffffffffffffffffffff16816020015173ffffffffffffffffffffffffffffffffffffffff1614610d02576040517f08c379a0000000000000000000000000000000000000000000000000000000008152600401610cf990613c6d565b60405180910390fd5b610d0b83612393565b600860008481526020019081526020016000206000808201600090556001820160006101000a81549073ffffffffffffffffffffffffffffffffffffffff02191690556002820160006101000a81549073ffffffffffffffffffffffffffffffffffffffff0219169055600382016000905560048201600090556005820160006101000a81549060ff02191690555050827fb90306ad06b2a6ff86ddc9327db583062895ef6540e62dc50add009db5b356eb60405160405180910390a2505050565b600060086000868152602001908152602001600020905083816003015414610dfa57610df9858561094a565b5b82816004015414610e1057610e0f8584610fd5565b5b8115158160050160009054906101000a900460ff16151514610e3757610e3685836112e0565b5b847fad31580ced54c7ef851b46e99eeb7dab65c9f7b83c33b0c9bfd5670c883befd560405160405180910390a25050505050565b6000806002600084815260200190815260200160002060009054906101000a900473ffffffffffffffffffffffffffffffffffffffff169050600073ffffffffffffffffffffffffffffffffffffffff168173ffffffffffffffffffffffffffffffffffffffff161415610f14576040517f08c379a0000000000000000000000000000000000000000000000000000000008152600401610f0b90613c2d565b60405180910390fd5b80915050919050565b60008073ffffffffffffffffffffffffffffffffffffffff168273ffffffffffffffffffffffffffffffffffffffff161415610f8e576040517f08c379a0000000000000000000000000000000000000000000000000000000008152600401610f8590613c0d565b60405180910390fd5b600360008373ffffffffffffffffffffffffffffffffffffffff1673ffffffffffffffffffffffffffffffffffffffff168152602001908152602001600020549050919050565b806107d081111561101b576040517f08c379a000000000000000000000000000000000000000000000000000000000815260040161101290613b0d565b60405180910390fd5b6000811161105e576040517f08c379a000000000000000000000000000000000000000000000000000000000815260040161105590613d0d565b60405180910390fd5b826000600860008381526020019081526020016000206040518060c0016040529081600082015481526020016001820160009054906101000a900473ffffffffffffffffffffffffffffffffffffffff1673ffffffffffffffffffffffffffffffffffffffff1673ffffffffffffffffffffffffffffffffffffffff1681526020016002820160009054906101000a900473ffffffffffffffffffffffffffffffffffffffff1673ffffffffffffffffffffffffffffffffffffffff1673ffffffffffffffffffffffffffffffffffffffff16815260200160038201548152602001600482015481526020016005820160009054906101000a900460ff16151515158152505090503373ffffffffffffffffffffffffffffffffffffffff16816020015173ffffffffffffffffffffffffffffffffffffffff16146111d8576040517f08c379a00000000000000000000000000000000000000000000000000000000081526004016111cf90613c6d565b60405180910390fd5b6000600860008781526020019081526020016000209050848160040181905550857f915ddf42cc08ea12c2f8aa4044ebf245db595dbba6114c36344348ed077c1ec5866040516112289190613de8565b60405180910390a2505050505050565b60606001805461124790614098565b80601f016020809104026020016040519081016040528092919081815260200182805461127390614098565b80156112c05780601f10611295576101008083540402835291602001916112c0565b820191906000526020600020905b8154815290600101906020018083116112a357829003601f168201915b5050505050905090565b6112dc6112d5611f77565b83836123e6565b5050565b816000600860008381526020019081526020016000206040518060c0016040529081600082015481526020016001820160009054906101000a900473ffffffffffffffffffffffffffffffffffffffff1673ffffffffffffffffffffffffffffffffffffffff1673ffffffffffffffffffffffffffffffffffffffff1681526020016002820160009054906101000a900473ffffffffffffffffffffffffffffffffffffffff1673ffffffffffffffffffffffffffffffffffffffff1673ffffffffffffffffffffffffffffffffffffffff16815260200160038201548152602001600482015481526020016005820160009054906101000a900460ff16151515158152505090503373ffffffffffffffffffffffffffffffffffffffff16816020015173ffffffffffffffffffffffffffffffffffffffff161461145a576040517f08c379a000000000000000000000000000000000000000000000000000000000815260040161145190613c6d565b60405180910390fd5b60006008600086815260200190815260200160002090508315158160050160009054906101000a900460ff16151514156114c9576040517f08c379a00000000000000000000000000000000000000000000000000000000081526004016114c090613bcd565b60405180910390fd5b831561153a576114da33308761212c565b843073ffffffffffffffffffffffffffffffffffffffff163373ffffffffffffffffffffffffffffffffffffffff167fd9833a6b8a219b001f51805a4733ebf47fafa146ef3ce10ede12f261055bb79d60405160405180910390a46115a1565b61154530338761212c565b843373ffffffffffffffffffffffffffffffffffffffff163073ffffffffffffffffffffffffffffffffffffffff167fd9833a6b8a219b001f51805a4733ebf47fafa146ef3ce10ede12f261055bb79d60405160405180910390a45b838160050160006101000a81548160ff021916908315150217905550847f2c4c0d52438c3daae1b3827fad788f403bd133a63f12fbae7137751a445f3165856040516115ed9190613a64565b60405180910390a25050505050565b60008061271090506116298161161b858761255390919063ffffffff16565b61256990919063ffffffff16565b91505092915050565b61164361163d611f77565b8361204e565b611682576040517f08c379a000000000000000000000000000000000000000000000000000000000815260040161167990613d6d565b60405180910390fd5b61168e8484848461257f565b50505050565b61169c612f44565b600860008381526020019081526020016000206040518060c0016040529081600082015481526020016001820160009054906101000a900473ffffffffffffffffffffffffffffffffffffffff1673ffffffffffffffffffffffffffffffffffffffff1673ffffffffffffffffffffffffffffffffffffffff1681526020016002820160009054906101000a900473ffffffffffffffffffffffffffffffffffffffff1673ffffffffffffffffffffffffffffffffffffffff1673ffffffffffffffffffffffffffffffffffffffff16815260200160038201548152602001600482015481526020016005820160009054906101000a900460ff1615151515815250509050919050565b60606117b182611f0b565b6117f0576040517f08c379a00000000000000000000000000000000000000000000000000000000081526004016117e790613cad565b60405180910390fd5b600060066000848152602001908152602001600020805461181090614098565b80601f016020809104026020016040519081016040528092919081815260200182805461183c90614098565b80156118895780601f1061185e57610100808354040283529160200191611889565b820191906000526020600020905b81548152906001019060200180831161186c57829003601f168201915b50505050509050600061189a6125db565b90506000815114156118b05781925050506118f3565b6000825111156118e55780826040516020016118cd9291906139d9565b604051602081830303815290604052925050506118f3565b6118ee846125f2565b925050505b919050565b60006008600084815260200190815260200160002090508060050160009054906101000a900460ff16611960576040517f08c379a000000000000000000000000000000000000000000000000000000000815260040161195790613d8d565b60405180910390fd5b60008160030154905060008260020160009054906101000a900473ffffffffffffffffffffffffffffffffffffffff1673ffffffffffffffffffffffffffffffffffffffff168360010160009054906101000a900473ffffffffffffffffffffffffffffffffffffffff1673ffffffffffffffffffffffffffffffffffffffff161415905060008360020160009054906101000a900473ffffffffffffffffffffffffffffffffffffffff1673ffffffffffffffffffffffffffffffffffffffff163373ffffffffffffffffffffffffffffffffffffffff16149050818015611a47575080155b15611a6157611a5e846003015485600401546108c4565b92505b823414611aa3576040517f08c379a0000000000000000000000000000000000000000000000000000000008152600401611a9a90613d4d565b60405180910390fd5b84611b0f57611ab330338861212c565b853373ffffffffffffffffffffffffffffffffffffffff163073ffffffffffffffffffffffffffffffffffffffff167fd9833a6b8a219b001f51805a4733ebf47fafa146ef3ce10ede12f261055bb79d60405160405180910390a45b8360010160009054906101000a900473ffffffffffffffffffffffffffffffffffffffff1673ffffffffffffffffffffffffffffffffffffffff166108fc85600301549081150290604051600060405180830381858888f19350505050158015611b7d573d6000803e3d6000fd5b50818015611b89575080155b15611c11576000611ba2856003015486600401546115fc565b90508460020160009054906101000a900473ffffffffffffffffffffffffffffffffffffffff1673ffffffffffffffffffffffffffffffffffffffff166108fc829081150290604051600060405180830381858888f19350505050158015611c0e573d6000803e3d6000fd5b50505b853373ffffffffffffffffffffffffffffffffffffffff168560010160009054906101000a900473ffffffffffffffffffffffffffffffffffffffff1673ffffffffffffffffffffffffffffffffffffffff167fa4dafed5a91e4ceb703f96c8515263275bad43a1eeb317a1bda3d0d33a4b72c660405160405180910390a4848460050160006101000a81548160ff021916908315150217905550338460010160006101000a81548173ffffffffffffffffffffffffffffffffffffffff021916908373ffffffffffffffffffffffffffffffffffffffff160217905550505050505050565b6000600560008473ffffffffffffffffffffffffffffffffffffffff1673ffffffffffffffffffffffffffffffffffffffff16815260200190815260200160002060008373ffffffffffffffffffffffffffffffffffffffff1673ffffffffffffffffffffffffffffffffffffffff16815260200190815260200160002060009054906101000a900460ff16905092915050565b60008360008111611dd1576040517f08c379a0000000000000000000000000000000000000000000000000000000008152600401611dc890613dad565b60405180910390fd5b836107d0811115611e17576040517f08c379a0000000000000000000000000000000000000000000000000000000008152600401611e0e90613b0d565b60405180910390fd5b60008111611e5a576040517f08c379a0000000000000000000000000000000000000000000000000000000008152600401611e5190613d0d565b60405180910390fd5b611e646007612699565b6000611e7060076126af565b9050611e7c33826126bd565b611e868189612897565b611e938188888b8961290b565b809350505050949350505050565b60007f01ffc9a7000000000000000000000000000000000000000000000000000000007bffffffffffffffffffffffffffffffffffffffffffffffffffffffff1916827bffffffffffffffffffffffffffffffffffffffffffffffffffffffff1916149050919050565b60008073ffffffffffffffffffffffffffffffffffffffff166002600084815260200190815260200160002060009054906101000a900473ffffffffffffffffffffffffffffffffffffffff1673ffffffffffffffffffffffffffffffffffffffff1614159050919050565b600033905090565b816004600083815260200190815260200160002060006101000a81548173ffffffffffffffffffffffffffffffffffffffff021916908373ffffffffffffffffffffffffffffffffffffffff160217905550808273ffffffffffffffffffffffffffffffffffffffff16611ff283610e6b565b73ffffffffffffffffffffffffffffffffffffffff167f8c5be1e5ebec7d5bd14f71427d1e84f3dd0314c0f7b2291e5b200ac8c7c3b92560405160405180910390a45050565b600081836120469190613ecd565b905092915050565b600061205982611f0b565b612098576040517f08c379a000000000000000000000000000000000000000000000000000000000815260040161208f90613bad565b60405180910390fd5b60006120a383610e6b565b90508073ffffffffffffffffffffffffffffffffffffffff168473ffffffffffffffffffffffffffffffffffffffff16148061211257508373ffffffffffffffffffffffffffffffffffffffff166120fa84610727565b73ffffffffffffffffffffffffffffffffffffffff16145b8061212357506121228185611cf7565b5b91505092915050565b8273ffffffffffffffffffffffffffffffffffffffff1661214c82610e6b565b73ffffffffffffffffffffffffffffffffffffffff16146121a2576040517f08c379a000000000000000000000000000000000000000000000000000000000815260040161219990613b2d565b60405180910390fd5b600073ffffffffffffffffffffffffffffffffffffffff168273ffffffffffffffffffffffffffffffffffffffff161415612212576040517f08c379a000000000000000000000000000000000000000000000000000000000815260040161220990613b6d565b60405180910390fd5b61221d838383612ab6565b612228600082611f7f565b6001600360008573ffffffffffffffffffffffffffffffffffffffff1673ffffffffffffffffffffffffffffffffffffffff16815260200190815260200160002060008282546122789190613fae565b925050819055506001600360008473ffffffffffffffffffffffffffffffffffffffff1673ffffffffffffffffffffffffffffffffffffffff16815260200190815260200160002060008282546122cf9190613ecd565b92505081905550816002600083815260200190815260200160002060006101000a81548173ffffffffffffffffffffffffffffffffffffffff021916908373ffffffffffffffffffffffffffffffffffffffff160217905550808273ffffffffffffffffffffffffffffffffffffffff168473ffffffffffffffffffffffffffffffffffffffff167fddf252ad1be2c89b69c2b068fc378daa952ba7f163c4a11628f55a4df523b3ef60405160405180910390a461238e838383612abb565b505050565b61239c81612ac0565b60006006600083815260200190815260200160002080546123bc90614098565b9050146123e3576006600082815260200190815260200160002060006123e29190612fa8565b5b50565b8173ffffffffffffffffffffffffffffffffffffffff168373ffffffffffffffffffffffffffffffffffffffff161415612455576040517f08c379a000000000000000000000000000000000000000000000000000000000815260040161244c90613b8d565b60405180910390fd5b80600560008573ffffffffffffffffffffffffffffffffffffffff1673ffffffffffffffffffffffffffffffffffffffff16815260200190815260200160002060008473ffffffffffffffffffffffffffffffffffffffff1673ffffffffffffffffffffffffffffffffffffffff16815260200190815260200160002060006101000a81548160ff0219169083151502179055508173ffffffffffffffffffffffffffffffffffffffff168373ffffffffffffffffffffffffffffffffffffffff167f17307eab39ab6107e8899845ad3d59bd9653f200f220920489ca2b5937696c31836040516125469190613a64565b60405180910390a3505050565b600081836125619190613f54565b905092915050565b600081836125779190613f23565b905092915050565b61258a84848461212c565b61259684848484612bdd565b6125d5576040517f08c379a00000000000000000000000000000000000000000000000000000000081526004016125cc90613aed565b60405180910390fd5b50505050565b606060405180602001604052806000815250905090565b60606125fd82611f0b565b61263c576040517f08c379a000000000000000000000000000000000000000000000000000000000815260040161263390613ced565b60405180910390fd5b60006126466125db565b905060008151116126665760405180602001604052806000815250612691565b8061267084612d74565b6040516020016126819291906139d9565b6040516020818303038152906040525b915050919050565b6001816000016000828254019250508190555050565b600081600001549050919050565b600073ffffffffffffffffffffffffffffffffffffffff168273ffffffffffffffffffffffffffffffffffffffff16141561272d576040517f08c379a000000000000000000000000000000000000000000000000000000000815260040161272490613c8d565b60405180910390fd5b61273681611f0b565b15612776576040517f08c379a000000000000000000000000000000000000000000000000000000000815260040161276d90613b4d565b60405180910390fd5b61278260008383612ab6565b6001600360008473ffffffffffffffffffffffffffffffffffffffff1673ffffffffffffffffffffffffffffffffffffffff16815260200190815260200160002060008282546127d29190613ecd565b92505081905550816002600083815260200190815260200160002060006101000a81548173ffffffffffffffffffffffffffffffffffffffff021916908373ffffffffffffffffffffffffffffffffffffffff160217905550808273ffffffffffffffffffffffffffffffffffffffff16600073ffffffffffffffffffffffffffffffffffffffff167fddf252ad1be2c89b69c2b068fc378daa952ba7f163c4a11628f55a4df523b3ef60405160405180910390a461289360008383612abb565b5050565b6128a082611f0b565b6128df576040517f08c379a00000000000000000000000000000000000000000000000000000000081526004016128d690613c4d565b60405180910390fd5b80600660008481526020019081526020016000209080519060200190612906929190612fe8565b505050565b6040518060c001604052808681526020013373ffffffffffffffffffffffffffffffffffffffff1681526020013373ffffffffffffffffffffffffffffffffffffffff168152602001858152602001848152602001821515815250600860008781526020019081526020016000206000820151816000015560208201518160010160006101000a81548173ffffffffffffffffffffffffffffffffffffffff021916908373ffffffffffffffffffffffffffffffffffffffff16021790555060408201518160020160006101000a81548173ffffffffffffffffffffffffffffffffffffffff021916908373ffffffffffffffffffffffffffffffffffffffff160217905550606082015181600301556080820151816004015560a08201518160050160006101000a81548160ff0219169083151502179055509050508015612a5a57612a5933308761212c565b5b843373ffffffffffffffffffffffffffffffffffffffff167fe1fb72be69a9270881e877fe2a9b4a2277c5a6ff762016a51dce8ad8bed55aa784878786604051612aa79493929190613aa1565b60405180910390a35050505050565b505050565b505050565b6000612acb82610e6b565b9050612ad981600084612ab6565b612ae4600083611f7f565b6001600360008373ffffffffffffffffffffffffffffffffffffffff1673ffffffffffffffffffffffffffffffffffffffff1681526020019081526020016000206000828254612b349190613fae565b925050819055506002600083815260200190815260200160002060006101000a81549073ffffffffffffffffffffffffffffffffffffffff021916905581600073ffffffffffffffffffffffffffffffffffffffff168273ffffffffffffffffffffffffffffffffffffffff167fddf252ad1be2c89b69c2b068fc378daa952ba7f163c4a11628f55a4df523b3ef60405160405180910390a4612bd981600084612abb565b5050565b6000612bfe8473ffffffffffffffffffffffffffffffffffffffff16612f21565b15612d67578373ffffffffffffffffffffffffffffffffffffffff1663150b7a02612c27611f77565b8786866040518563ffffffff1660e01b8152600401612c499493929190613a18565b602060405180830381600087803b158015612c6357600080fd5b505af1925050508015612c9457506040513d601f19601f82011682018060405250810190612c919190613394565b60015b612d17573d8060008114612cc4576040519150601f19603f3d011682016040523d82523d6000602084013e612cc9565b606091505b50600081511415612d0f576040517f08c379a0000000000000000000000000000000000000000000000000000000008152600401612d0690613aed565b60405180910390fd5b805181602001fd5b63150b7a0260e01b7bffffffffffffffffffffffffffffffffffffffffffffffffffffffff1916817bffffffffffffffffffffffffffffffffffffffffffffffffffffffff191614915050612d6c565b600190505b949350505050565b60606000821415612dbc576040518060400160405280600181526020017f30000000000000000000000000000000000000000000000000000000000000008152509050612f1c565b600082905060005b60008214612dee578080612dd7906140fb565b915050600a82612de79190613f23565b9150612dc4565b60008167ffffffffffffffff811115612e30577f4e487b7100000000000000000000000000000000000000000000000000000000600052604160045260246000fd5b6040519080825280601f01601f191660200182016040528015612e625781602001600182028036833780820191505090505b5090505b60008514612f1557600182612e7b9190613fae565b9150600a85612e8a9190614144565b6030612e969190613ecd565b60f81b818381518110612ed2577f4e487b7100000000000000000000000000000000000000000000000000000000600052603260045260246000fd5b60200101907effffffffffffffffffffffffffffffffffffffffffffffffffffffffffffff1916908160001a905350600a85612f0e9190613f23565b9450612e66565b8093505050505b919050565b6000808273ffffffffffffffffffffffffffffffffffffffff163b119050919050565b6040518060c0016040528060008152602001600073ffffffffffffffffffffffffffffffffffffffff168152602001600073ffffffffffffffffffffffffffffffffffffffff16815260200160008152602001600081526020016000151581525090565b508054612fb490614098565b6000825580601f10612fc65750612fe5565b601f016020900490600052602060002090810190612fe4919061306e565b5b50565b828054612ff490614098565b90600052602060002090601f016020900481019282613016576000855561305d565b82601f1061302f57805160ff191683800117855561305d565b8280016001018555821561305d579182015b8281111561305c578251825591602001919060010190613041565b5b50905061306a919061306e565b5090565b5b8082111561308757600081600090555060010161306f565b5090565b600061309e61309984613e28565b613e03565b9050828152602081018484840111156130b657600080fd5b6130c1848285614056565b509392505050565b60006130dc6130d784613e59565b613e03565b9050828152602081018484840111156130f457600080fd5b6130ff848285614056565b509392505050565b60008135905061311681614851565b92915050565b60008135905061312b81614868565b92915050565b6000813590506131408161487f565b92915050565b6000815190506131558161487f565b92915050565b600082601f83011261316c57600080fd5b813561317c84826020860161308b565b91505092915050565b600082601f83011261319657600080fd5b81356131a68482602086016130c9565b91505092915050565b6000813590506131be81614896565b92915050565b6000602082840312156131d657600080fd5b60006131e484828501613107565b91505092915050565b6000806040838503121561320057600080fd5b600061320e85828601613107565b925050602061321f85828601613107565b9150509250929050565b60008060006060848603121561323e57600080fd5b600061324c86828701613107565b935050602061325d86828701613107565b925050604061326e868287016131af565b9150509250925092565b6000806000806080858703121561328e57600080fd5b600061329c87828801613107565b94505060206132ad87828801613107565b93505060406132be878288016131af565b925050606085013567ffffffffffffffff8111156132db57600080fd5b6132e78782880161315b565b91505092959194509250565b6000806040838503121561330657600080fd5b600061331485828601613107565b92505060206133258582860161311c565b9150509250929050565b6000806040838503121561334257600080fd5b600061335085828601613107565b9250506020613361858286016131af565b9150509250929050565b60006020828403121561337d57600080fd5b600061338b84828501613131565b91505092915050565b6000602082840312156133a657600080fd5b60006133b484828501613146565b91505092915050565b600080600080608085870312156133d357600080fd5b600085013567ffffffffffffffff8111156133ed57600080fd5b6133f987828801613185565b945050602061340a878288016131af565b935050604061341b878288016131af565b925050606061342c8782880161311c565b91505092959194509250565b60006020828403121561344a57600080fd5b6000613458848285016131af565b91505092915050565b6000806040838503121561347457600080fd5b6000613482858286016131af565b92505060206134938582860161311c565b9150509250929050565b600080604083850312156134b057600080fd5b60006134be858286016131af565b92505060206134cf858286016131af565b9150509250929050565b600080600080608085870312156134ef57600080fd5b60006134fd878288016131af565b945050602061350e878288016131af565b935050604061351f878288016131af565b92505060606135308782880161311c565b91505092959194509250565b61354581613fe2565b82525050565b61355481613fe2565b82525050565b61356381613ff4565b82525050565b61357281613ff4565b82525050565b600061358382613e8a565b61358d8185613ea0565b935061359d818560208601614065565b6135a681614231565b840191505092915050565b60006135bc82613e95565b6135c68185613eb1565b93506135d6818560208601614065565b6135df81614231565b840191505092915050565b60006135f582613e95565b6135ff8185613ec2565b935061360f818560208601614065565b80840191505092915050565b6000613628603283613eb1565b915061363382614242565b604082019050919050565b600061364b601e83613eb1565b915061365682614291565b602082019050919050565b600061366e602583613eb1565b9150613679826142ba565b604082019050919050565b6000613691601c83613eb1565b915061369c82614309565b602082019050919050565b60006136b4602483613eb1565b91506136bf82614332565b604082019050919050565b60006136d7601983613eb1565b91506136e282614381565b602082019050919050565b60006136fa602c83613eb1565b9150613705826143aa565b604082019050919050565b600061371d601f83613eb1565b9150613728826143f9565b602082019050919050565b6000613740603883613eb1565b915061374b82614422565b604082019050919050565b6000613763602a83613eb1565b915061376e82614471565b604082019050919050565b6000613786602983613eb1565b9150613791826144c0565b604082019050919050565b60006137a9602e83613eb1565b91506137b48261450f565b604082019050919050565b60006137cc603283613eb1565b91506137d78261455e565b604082019050919050565b60006137ef602083613eb1565b91506137fa826145ad565b602082019050919050565b6000613812603183613eb1565b915061381d826145d6565b604082019050919050565b6000613835602c83613eb1565b915061384082614625565b604082019050919050565b6000613858602f83613eb1565b915061386382614674565b604082019050919050565b600061387b601883613eb1565b9150613886826146c3565b602082019050919050565b600061389e602183613eb1565b91506138a9826146ec565b604082019050919050565b60006138c1603283613eb1565b91506138cc8261473b565b604082019050919050565b60006138e4603183613eb1565b91506138ef8261478a565b604082019050919050565b6000613907603183613eb1565b9150613912826147d9565b604082019050919050565b600061392a601c83613eb1565b915061393582614828565b602082019050919050565b60c08201600082015161395660008501826139bb565b506020820151613969602085018261353c565b50604082015161397c604085018261353c565b50606082015161398f60608501826139bb565b5060808201516139a260808501826139bb565b5060a08201516139b560a085018261355a565b50505050565b6139c48161404c565b82525050565b6139d38161404c565b82525050565b60006139e582856135ea565b91506139f182846135ea565b91508190509392505050565b6000602082019050613a12600083018461354b565b92915050565b6000608082019050613a2d600083018761354b565b613a3a602083018661354b565b613a4760408301856139ca565b8181036060830152613a598184613578565b905095945050505050565b6000602082019050613a796000830184613569565b92915050565b60006020820190508181036000830152613a9981846135b1565b905092915050565b60006080820190508181036000830152613abb81876135b1565b9050613aca60208301866139ca565b613ad760408301856139ca565b613ae46060830184613569565b95945050505050565b60006020820190508181036000830152613b068161361b565b9050919050565b60006020820190508181036000830152613b268161363e565b9050919050565b60006020820190508181036000830152613b4681613661565b9050919050565b60006020820190508181036000830152613b6681613684565b9050919050565b60006020820190508181036000830152613b86816136a7565b9050919050565b60006020820190508181036000830152613ba6816136ca565b9050919050565b60006020820190508181036000830152613bc6816136ed565b9050919050565b60006020820190508181036000830152613be681613710565b9050919050565b60006020820190508181036000830152613c0681613733565b9050919050565b60006020820190508181036000830152613c2681613756565b9050919050565b60006020820190508181036000830152613c4681613779565b9050919050565b60006020820190508181036000830152613c668161379c565b9050919050565b60006020820190508181036000830152613c86816137bf565b9050919050565b60006020820190508181036000830152613ca6816137e2565b9050919050565b60006020820190508181036000830152613cc681613805565b9050919050565b60006020820190508181036000830152613ce681613828565b9050919050565b60006020820190508181036000830152613d068161384b565b9050919050565b60006020820190508181036000830152613d268161386e565b9050919050565b60006020820190508181036000830152613d4681613891565b9050919050565b60006020820190508181036000830152613d66816138b4565b9050919050565b60006020820190508181036000830152613d86816138d7565b9050919050565b60006020820190508181036000830152613da6816138fa565b9050919050565b60006020820190508181036000830152613dc68161391d565b9050919050565b600060c082019050613de26000830184613940565b92915050565b6000602082019050613dfd60008301846139ca565b92915050565b6000613e0d613e1e565b9050613e1982826140ca565b919050565b6000604051905090565b600067ffffffffffffffff821115613e4357613e42614202565b5b613e4c82614231565b9050602081019050919050565b600067ffffffffffffffff821115613e7457613e73614202565b5b613e7d82614231565b9050602081019050919050565b600081519050919050565b600081519050919050565b600082825260208201905092915050565b600082825260208201905092915050565b600081905092915050565b6000613ed88261404c565b9150613ee38361404c565b9250827fffffffffffffffffffffffffffffffffffffffffffffffffffffffffffffffff03821115613f1857613f17614175565b5b828201905092915050565b6000613f2e8261404c565b9150613f398361404c565b925082613f4957613f486141a4565b5b828204905092915050565b6000613f5f8261404c565b9150613f6a8361404c565b9250817fffffffffffffffffffffffffffffffffffffffffffffffffffffffffffffffff0483118215151615613fa357613fa2614175565b5b828202905092915050565b6000613fb98261404c565b9150613fc48361404c565b925082821015613fd757613fd6614175565b5b828203905092915050565b6000613fed8261402c565b9050919050565b60008115159050919050565b60007fffffffff0000000000000000000000000000000000000000000000000000000082169050919050565b600073ffffffffffffffffffffffffffffffffffffffff82169050919050565b6000819050919050565b82818337600083830152505050565b60005b83811015614083578082015181840152602081019050614068565b83811115614092576000848401525b50505050565b600060028204905060018216806140b057607f821691505b602082108114156140c4576140c36141d3565b5b50919050565b6140d382614231565b810181811067ffffffffffffffff821117156140f2576140f1614202565b5b80604052505050565b60006141068261404c565b91507fffffffffffffffffffffffffffffffffffffffffffffffffffffffffffffffff82141561413957614138614175565b5b600182019050919050565b600061414f8261404c565b915061415a8361404c565b92508261416a576141696141a4565b5b828206905092915050565b7f4e487b7100000000000000000000000000000000000000000000000000000000600052601160045260246000fd5b7f4e487b7100000000000000000000000000000000000000000000000000000000600052601260045260246000fd5b7f4e487b7100000000000000000000000000000000000000000000000000000000600052602260045260246000fd5b7f4e487b7100000000000000000000000000000000000000000000000000000000600052604160045260246000fd5b6000601f19601f8301169050919050565b7f4552433732313a207472616e7366657220746f206e6f6e20455243373231526560008201527f63656976657220696d706c656d656e7465720000000000000000000000000000602082015250565b7f526f79616c7479206d757374206e6f74206d6f7265207468616e203230250000600082015250565b7f4552433732313a207472616e736665722066726f6d20696e636f72726563742060008201527f6f776e6572000000000000000000000000000000000000000000000000000000602082015250565b7f4552433732313a20746f6b656e20616c7265616479206d696e74656400000000600082015250565b7f4552433732313a207472616e7366657220746f20746865207a65726f2061646460008201527f7265737300000000000000000000000000000000000000000000000000000000602082015250565b7f4552433732313a20617070726f766520746f2063616c6c657200000000000000600082015250565b7f4552433732313a206f70657261746f7220717565727920666f72206e6f6e657860008201527f697374656e7420746f6b656e0000000000000000000000000000000000000000602082015250565b7f537461747573206368616e6765206d75737420626520646966666572656e7400600082015250565b7f4552433732313a20617070726f76652063616c6c6572206973206e6f74206f7760008201527f6e6572206e6f7220617070726f76656420666f7220616c6c0000000000000000602082015250565b7f4552433732313a2062616c616e636520717565727920666f7220746865207a6560008201527f726f206164647265737300000000000000000000000000000000000000000000602082015250565b7f4552433732313a206f776e657220717565727920666f72206e6f6e657869737460008201527f656e7420746f6b656e0000000000000000000000000000000000000000000000602082015250565b7f45524337323155524953746f726167653a2055524920736574206f66206e6f6e60008201527f6578697374656e7420746f6b656e000000000000000000000000000000000000602082015250565b7f596f752063616e206f6e6c7920706572666f726d207468697320616374696f6e60008201527f206f6e20796f7572206f776e20746f6b656e0000000000000000000000000000602082015250565b7f4552433732313a206d696e7420746f20746865207a65726f2061646472657373600082015250565b7f45524337323155524953746f726167653a2055524920717565727920666f722060008201527f6e6f6e6578697374656e7420746f6b656e000000000000000000000000000000602082015250565b7f4552433732313a20617070726f76656420717565727920666f72206e6f6e657860008201527f697374656e7420746f6b656e0000000000000000000000000000000000000000602082015250565b7f4552433732314d657461646174613a2055524920717565727920666f72206e6f60008201527f6e6578697374656e7420746f6b656e0000000000000000000000000000000000602082015250565b7f526f79616c7479206d757374206174206c656173742031250000000000000000600082015250565b7f4552433732313a20617070726f76616c20746f2063757272656e74206f776e6560008201527f7200000000000000000000000000000000000000000000000000000000000000602082015250565b7f54686520616d6f756e74206f662065746865727320796f75206d75737420737560008201527f626d69742069736e2774206d6174636865640000000000000000000000000000602082015250565b7f4552433732313a207472616e736665722063616c6c6572206973206e6f74206f60008201527f776e6572206e6f7220617070726f766564000000000000000000000000000000602082015250565b7f596f752063616e2774206275792074686973206974656d20626563617573652060008201527f69742773206e6f742073656c6c61626c65000000000000000000000000000000602082015250565b7f5072696365206d757374206265206174206c6561737420312077656900000000600082015250565b61485a81613fe2565b811461486557600080fd5b50565b61487181613ff4565b811461487c57600080fd5b50565b61488881614000565b811461489357600080fd5b50565b61489f8161404c565b81146148aa57600080fd5b5056fea26469706673582212204dd0c56862d08642493bc4842a6093e18d807d9721bbe20ec59e5394c4f08d1064736f6c63430008040033",
  "linkReferences": {},
  "deployedLinkReferences": {}
}